:100000000C9438000C9455000C9455000C94550039
:100010000C9455000C9455000C9455000C9455000C
:100020000C9455000C9455000C9455000C945500FC
:100030000C9455000C9455000C941F030C9455001F
:100040000C9455000C9455000C94E9080C94550040
:100050000C9455000C9455000C9455000C945500CC
:100060000C9438030C9455000C9455000C945500D6
:1000700011241FBECFEFD0E1DEBFCDBF12E0A0E064
:10008000B1E0E4E5F0E202C005900D92A630B107C0
:10009000D9F715E0A6E0B2E001C01D92A83AB10779
:1000A000E1F70E944D040C9428100C94000010926B
:1000B000C50081E88093C40086E08093C20088E197
:1000C0008093C1000895982F1092A4051092A30563
:1000D00020E030E002C02F5F3F4F8091C00085FDDF
:1000E00004C083E0283E3807B0F33093A405209382
:1000F000A3059093C60008951092A4051092A3053D
:1001000020E030E002C02F5F3F4F8091C00087FDAC
:1001100004C083E0283E3807B0F33093A405209351
:10012000A3058091C60080931A0208959091190248
:1001300002C09091C6008091C00087FDFACF9093D5
:10014000190208951F93182F0E947C0080931802B3
:10015000873619F4812F0E9463009091190202C022
:100160009091C6008091C00087FDFACF909319024C
:100170001F91089528E833E104C0F9013197F1F7A0
:1001800001970097D1F70895DF92EF92FF920F93B6
:100190001F93162FF72E792F96E0D92E03C0ED2D41
:1001A000EA95F1F7E22EEA94F1E0E21608F0F0E0C9
:1001B000232F2150E1E0231708F0E0E00F2F020F7A
:1001C00031E0021708F030E0E32B242F2150F1E05A
:1001D000241708F0F0E06E2F620F31E0621708F08C
:1001E00030E0F32B252F215041E0251708F040E0A7
:1001F0009F2F920F31E0921708F030E0432B212F10
:10020000215051E0211708F050E0B42FB20F31E037
:10021000B21708F030E0532B2F2D215041E02F155D
:1002200008F040E0A52FA20F31E0A21708F030E05F
:10023000432B282F2150E1E0281708F0E0E0F42FAD
:10024000F20F81E0F21708F080E0E82B71502E2DBC
:10025000302F462F592F1B2FFA2E8F2F7E0F2F3F17
:1002600009F09DCF0F3F09F09ACF6F3F09F097CF6C
:100270009F3F09F094CFBF3F09F091CFAF3F09F006
:100280008ECFFF3F09F08BCF7F3F09F088CF1F91C2
:100290000F91FF90EF90DF90089568B9823011F4CC
:1002A0005D9A01C05D985E9A80E090E036E003C000
:1002B000232F2A95F1F7019687309105C9F75E98AB
:1002C0005D9818B80895682F803420F05B9A5A988A
:1002D000605402C05A9A5B98606481E00E944D01AC
:1002E0000895682F686B81E00E944D0108951F9367
:1002F000162F0E946301812F0E9471011F910895A2
:100300000F931F93162F042F0E946301812F0E94C9
:10031000710182E0602F0E944D011F910F9108959D
:10032000FF920F931F93CF93DF93F82E8BB18C60C6
:100330008BB9809114029091150200E010E012C078
:10034000802F0E947101C0E0D0E004C082E06F2DD8
:100350000E944D012196C134D105C1F70F5F1F4F97
:1003600080E490E00830110558F3909315028093D3
:1003700014021093170200931602CDB7DEB7E5E022
:100380000C94F00F8CEF8AB91BB88FEF87B918B8AF
:1003900028EE33E048E853E103C0CA010197F1F7C2
:1003A000215030408FEF2F3F3807B9F78CE88BB9D9
:1003B00081E06FE30E944D0181E060EC0E944D01FD
:1003C00081E060E40E944D0181E068EB0E944D01F4
:1003D00080E00E94900108950E9477018BB18063B4
:1003E0008BB980E090E036E003C0232F2A95F1F727
:1003F000019687309105C9F78BB18F7C8BB988B195
:100400000895E82F262F30E0C901887F68E070E06A
:100410000E94990F2770307041E050E002C0440FF5
:10042000551F2A95E2F78E2F0E9480010895EF92C2
:10043000FF920F931F93E82E062F10E0C801887FCC
:1004400068E070E00E94990FF62E8E2D0E94EC015C
:100450000770107021E030E002C0220F331F0A95B0
:10046000E2F7482F422B8E2D6F2D0E9480011F91A5
:100470000F91FF90EF900895A0E0B0E0E2E4F2E089
:100480000C94D20FD82EE62EFF24C701887F68E097
:1004900070E00E94990F00271127061B170B095FB8
:1004A0001F4FC7E0D0E00BC08D2D0E9463018C2F41
:1004B0000E94710182E06FEF0E944D0121970C179D
:1004C0001D0794F38D2D0E9463018C2F0E947101F2
:1004D00027E030E040E0B70160957095677070707C
:1004E000E1E0F0E00AC0CF01022E02C0880F991FA0
:1004F0000A94E2F7482B21503040261737079CF723
:10050000442321F082E0642F0E944D01CDB7DEB775
:10051000E7E00C94EE0FA0E0B0E0E1E9F2E00C942B
:10052000D20FD82E7B018B0123E0169507952A95D3
:10053000E1F7C0E0D0E009C08C2F6D2D0E9477015B
:1005400082E06FEF0E944D012196C017D107A0F302
:10055000802F6D2D0E947701B7016770707020E0C9
:1005600030E040E0A7E0B0E0E1E0F0E0CD01821B48
:10057000930BEF0102C0CC0FDD1F8A95E2F74C2BE5
:100580002F5F3F4F6217730788F782E0642F0E9446
:100590004D01CDB7DEB7E7E00C94EE0F90E0887F19
:1005A00068E070E00E94990F862F0895EF92FF9205
:1005B0000F931F93CF93DF93E82E162FF42E00E0B6
:1005C000C1E0D0E01EC0812F90E0877090709E0146
:1005D000082E02C0220F331F0A94E2F7022B07975E
:1005E00011F01F1569F48E2D0E946301812F0E9466
:1005F000CE020E94710182E0602F0E944D0100E056
:100600001F5FF11600F700931202CDB7DEB7E6E0E8
:100610000C94EF0F83B182708093090283B18470D0
:100620008093080283B181708093070283B1807147
:1006300080930A0283B1807280930B0208951F9207
:100640000F920FB60F9211248F93EF93FF93109296
:10065000850010928400EAE7F0E080818064808366
:10066000FF91EF918F910F900FBE0F901F901895F3
:100670001F920F920FB60F9211242F933F934F9317
:100680005F936F937F938F939F93AF93EF93FF93BA
:100690008091060287FF05C08091F701853009F03F
:1006A00072C0A091F701A53019F48FE7809306027C
:1006B0008A2F8150823028F0A43019F0A63009F03A
:1006C00042C040911002509111028091030290911A
:1006D00004024817590738F01092110210921002C4
:1006E00010920D022DC080910D02882361F180913E
:1006F0007800909179002091780030917900809174
:100700000602682F70E0FB01EE0FFF1FEF55FB4F55
:1007100080819181281B390B8091FF01909100020B
:100720008217930780F4809101029091020268176A
:10073000790748F44F5F5F4F5093110240931002C6
:100740001092060220C040910602242F30E08091D2
:10075000780090917900F901EE0FFF1FEF55FB4FE4
:100760009695879591838083A33041F440FD02C024
:1007700081E601C080E680937C0002C0A53019F0BC
:100780004F5F40930602FF91EF91AF919F918F9140
:100790007F916F915F914F913F912F910F900FBE7D
:1007A0000F901F9018951F93CF93DF931092130211
:1007B00095E0899FE00111240CC0CE01810F911DAD
:1007C0000E942010682F82E00E944D011F5F10934D
:1007D000130210911302153080F382E060E00E9452
:1007E0004D01DF91CF911F910895A0E0B0E0EBEFB4
:1007F000F3E00C94D20FD62EEA012AEFE22E2FEF6F
:10080000F22EE80EF91E4115510531F58E2D0E948C
:1008100063018D2D0E94710180E30E94D3031CC0EF
:10082000CE016AE070E00E94850F8C018E2D0E943F
:1008300063018D2D0E947101802F805D0E94D30382
:100840008AEF9FEFE80EF91ECE01801B910B6AE044
:1008500070E00E94850FEB01209711F7CDB7DEB74E
:10086000E7E00C94EE0F0F931F93CF93DF93EC010F
:10087000162F042F0AC0812F0E946301802F0E942F
:10088000710189910E94D3031A5F8881882399F7A7
:10089000DF91CF911F910F9108954F925F926F92C8
:1008A0007F928F929F92AF92BF92CF92DF92EF9200
:1008B000FF921F93CF93DF9384B1807C84B90F9A0A
:1008C000179885B18F6385B91092C50081E8809330
:1008D000C40086E08093C20088E18093C1000E943A
:1008E000C20180E680937C008DED80937A0083E5E1
:1008F0008CBD85E085BD21E020936E0084E080936F
:100900006F0016BC109285001092840088EC90E075
:1009100090938B0080938A0020938100789480913B
:100920000C02882309F4BCC180E00E94900110925F
:100930000C028091F90189300CF449C18A3021F50B
:1009400080E091E060E040E00E94330460918A0022
:1009500070918B00685C704013E0769567951A95EE
:10096000E1F781E00E948B0240918A0050918B0058
:100970008FE790E062E070E00E94F5038BE091E089
:1009800060E042E00E9433048091F9018031B1F5CA
:100990008FE091E060E040E00E94330487E191E065
:1009A0006AE041E00E9433048FE191E060E042E0C0
:1009B0000E94330484E291E060E044E00E9433044A
:1009C0008DE291E060E045E00E94330485E391E030
:1009D00060E440E00E9433048CE391E066E441E08F
:1009E0000E94330484E491E060E542E00E94330415
:1009F00089E491E060E444E00E9433048091F901CD
:100A00008E3091F484E591E060E040E00E94330490
:100A10006091FB0181E070E00E948B028BE091E02D
:100A200060E042E00E9433048091F9018D30A9F426
:100A30008DE591E060E040E00E9433044091F801D0
:100A400080E490E061E070E050E00E94F5038BE00C
:100A500091E060E042E00E9433048091F9018C3023
:100A6000B1F488E691E060E040E00E9433044091F8
:100A7000FF015091000280E490E061E070E00E948C
:100A8000F5038BE091E060E042E00E943304809146
:100A9000F9018B3031F588E691E060E040E00E949A
:100AA000330440910102509102024115510539F081
:100AB00080E490E061E070E00E94F50306C082E708
:100AC00091E060E041E00E9433048BE791E060E454
:100AD00044E00E9433048BE091E060E042E00E9439
:100AE00033048091F9018F30C9F486E891E060E029
:100AF00040E00E94330480910F02882319F080E9BE
:100B000091E002C082E791E060E041E00E9433049E
:100B10008BE091E060E042E00E9433048091F901B3
:100B2000893009F0BDC088E991E060E040E00E94B2
:100B300033048091F701813019F48DE991E0A6C06A
:100B4000823019F484EA91E009C0833019F485EB0E
:100B500091E09CC0843081F588EB91E060E041E059
:100B60000E9433048091F701823011F0843031F417
:100B70008DEA91E060E440E00E94330420918A0015
:100B800030918B0040E050E060E07DE281E391E055
:100B90000E94AC0FB4E05595479537952795BA95C7
:100BA000D1F780E890E060E070E0A9010E94F503D1
:100BB00082EB91E065E76BC0853019F48DEB91E035
:100BC00065C0863009F066C082EC91E05FC08F3F5F
:100BD00009F466C08BEC91E060E040E00E943304D1
:100BE0008091F901882331F480ED91E060E041E0EB
:100BF0000E9433048091F901823031F480E091E069
:100C000060E041E00E9433048091F901853031F4C5
:100C10008DE591E060E041E00E9433048091F901AC
:100C2000863031F485ED91E060E041E00E943304CC
:100C30008091F901833031F48EED91E060E041E084
:100C40000E9433048091F901843031F488E691E008
:100C500060E041E00E9433048091F901873031F473
:100C600086E891E060E041E00E9433048091F90160
:100C7000883031F488EE91E060E041E00E94330476
:100C80008091F901813031F488E991E060E041E040
:100C90000E9433048BE091E060E042E00E94330464
:100CA000809106028F3708F492C280910D0288234A
:100CB00019F481E080930D0210921102109210023B
:100CC0008091F9019091F7018F3F09F03CC2923079
:100CD00019F0943009F069C081EA94E06BE172E0A8
:100CE0000E94F10D8BE192E00E94200E8BE192E0D8
:100CF0006BE174E00E94EA0E1092FA011FE350C00B
:100D000080910F02E92FF0E0882361F0EE0FFF1FC2
:100D1000E55EFB4F80819181E5E096958795EA95A8
:100D2000E1F706C0EE0FFF1FE55EFB4F8181869560
:100D30008093A0048091A004803410F01093A0044C
:100D40001092A7050AC0822F805C40E00E948001BB
:100D50008091A7058F5F8093A7056091A7052091DB
:100D6000FA01673080F3822F90E087709070892BB2
:100D700059F4822F805C0E94630182E00E9471011D
:100D800082E061E00E944D018091FA01805C6091F7
:100D9000A0040E943C028091FA018F5F8093FA01C7
:100DA0009091FA01903408F4ABCF8091F701813033
:100DB00019F0843009F07BC19091FC018091FB0116
:100DC000981708F470C181E08093FC011092FA0139
:100DD000CFE3D0E063C18091F701A42FB0E084306D
:100DE00009F0AFC0FD01EE0FFF1FEF55FB4F8181F2
:100DF000E82EE694FF249E012E193F0930939F04AC
:100E000020939E04423078F1FD01EE0FFF1FE35660
:100E1000FB4F8181C82EC694DD24CE018C199D091B
:100E200090939D0480939C048217930740F4820F53
:100E3000931F969587959093A2058093A105209185
:100E40009C0430919D0480919E0490919F04821790
:100E5000930788F4820F931F969587959093A60524
:100E60008093A50508C03093A2052093A105309377
:100E7000A6052093A5054E3708F042C0AA0FBB1F58
:100E8000AB55BB4F11968C91A82EA694BB24CE01D6
:100E90008A199B0990939D0480939C0420919E0441
:100EA00030919F048217930780F4820F931F209143
:100EB000A1053091A205969587952817390708F462
:100EC000C9019093A2058093A10520919C043091C3
:100ED0009D0480919E0490919F048217930780F453
:100EE000820F931F2091A5053091A60596958795B1
:100EF0008217930708F4C9019093A6058093A5056E
:100F00001092A0040AC0822F869540E00E948001C2
:100F10008091A0048F5F8093A0046091A004209131
:100F2000FA01683080F3822F86956091A105409187
:100F3000A5050E94D6028091FA018F5F8093FA0185
:100F4000A8C0FD01EE0FFF1FEF55FB4F8181882EDA
:100F5000869499249E012819390930939F0420937F
:100F60009E04442379F1FD01EE0FFF1FE156FB4F74
:100F70008181682E66947724CE0186199709909313
:100F80009D0480939C048217930740F4820F931F63
:100F9000969587959093A2058093A10520919C0436
:100FA00030919D0480919E0490919F048217930735
:100FB00090F4820F931F969587959093A605809342
:100FC000A50509C03093A2052093A1053093A6057D
:100FD0002093A50503C04F3708F042C0AA0FBB1FDE
:100FE000AD55BB4F11968C91482E46945524CE0199
:100FF0008419950990939D0480939C0420919E04EC
:1010000030919F048217930780F4820F931F2091E1
:10101000A1053091A205969587952817390708F400
:10102000C9019093A2058093A10520919C04309161
:101030009D0480919E0490919F048217930780F4F1
:10104000820F931F2091A5053091A605969587954F
:101050008217930708F4C9019093A6058093A5050C
:101060001092A0040AC08091FA0140E00E94800121
:101070008091A0048F5F8093A0046091A0046830E9
:1010800090F38091FA016091A1054091A5050E941D
:10109000D6028091FA018F5F8093FA014091FA01A4
:1010A00047FF99CE92C09F5F9093FC018EC0833022
:1010B00009F08BC09091FC018091FB01981700F121
:1010C00081E08093FC0180E414C01092FA010AC010
:1010D0008091A00440E00E9480018091FA018F5F1E
:1010E0008093FA016091FA01683090F38091A00436
:1010F0008F5F8093A0048091A00487FFE6CF03C098
:101100009F5F9093FC011092A0041FE317C0F0E0D2
:10111000EE0FFF1FDF01AF55BB4F11968C918695E7
:10112000ED55FB4F91819695612F691B805C0E9464
:1011300017028091A0048E5F8093A004E091A00428
:10114000E7FFE5CF42C0963089F51092FA01109280
:10115000A70510E826C0E22FF0E0EE0FFF1FEF55C5
:10116000FB4F80819181880F892F881F990B919562
:101170008093A0042F5F2093FA010E94A200809127
:10118000A3059091A405885E934029F48091A7055A
:101190008F5F8093A7058091A7058A3010F0109388
:1011A000FA012091FA0127FFD6CF0FC0953069F4DC
:1011B00080919F059091A005880F892F881F990B1A
:1011C00091958093A0040E94A20010920602000054
:1011D000A6CB1F920F920FB60F9211241F932F933D
:1011E0003F934F935F936F937F938F939F93AF93AF
:1011F000BF93EF93FF9316E05BC08091F7018230BD
:1012000011F0843031F48DEA91E060E440E00E9416
:10121000330420918A0030918B0040E050E060E080
:101220007DE281E391E00E94AC0FE4E055954795A3
:1012300037952795EA95D1F780E890E060E070E077
:10124000A9010E94F50382EB91E065E741E00E946D
:1012500033048091F701813011F0843031F48EEE47
:1012600091E060E040E00E94330420918A003091D8
:101270008B0040E050E060E876E988E990E00E9469
:10128000AC0F8FE390E061E070E0A9010E94F503EC
:10129000189909C080910702882329F01092F9015A
:1012A00081E080930C020E940A03812F8A95F1F756
:1012B0001B9905C08091F9018F3F09F49ECF909151
:1012C000F9019F3F09F0E5C119997EC0809109029B
:1012D000882309F479C020918A0030918B006091B5
:1012E000F80140E050E08FEF9FEFA0E0B0E0861BF8
:1012F0009109A109B10982179307A407B5071CF446
:1013000088EC90E006C080918A0090918B00860F57
:10131000911D90938B0080938A008091F701823019
:1013200019F0843009F009C38DEA91E060E440E0EF
:101330000E94330420918A0030918B0040E050E0FD
:1013400060E07DE281E391E00E94AC0F74E055958E
:101350004795379527957A95D1F780E890E060E03A
:1013600070E0A9010E94F50382EB91E065E741E09E
:101370000E9433048EEE91E060E040E00E9433046E
:1013800020918A0030918B0040E050E060E876E9DF
:1013900088E990E00E94AC0F8FE390E061E070E09C
:1013A000A9010E94F50310920D0228EC30E048E8F4
:1013B00053E103C0CA010197F1F7215030408FEF8C
:1013C0002F3F3807B9F7B9C21A9977C08091080240
:1013D000882309F472C020918A0030918B0080919B
:1013E000F801482F50E0CA0188539F4F281739074A
:1013F00018F48FEF9FEF06C080918A0090918B00C8
:10140000841B950B90938B0080938A008091F70149
:10141000823019F0843009F090C28DEA91E060E4E6
:1014200040E00E94330420918A0030918B0040E01C
:1014300050E060E07DE281E391E00E94AC0F64E067
:1014400055954795379527956A95D1F780E890E0AF
:1014500060E070E0A9010E94F50382EB91E065E78E
:1014600041E00E9433048EEE91E060E040E00E9493
:10147000330420918A0030918B0040E050E060E816
:1014800076E988E990E00E94AC0F8FE390E061E09C
:1014900070E0A9010E94F50310920D0228EC30E0E3
:1014A00048E853E103C0CA010197F1F721503040E9
:1014B0008FEF2F3F3807B9F740C21C996FC080915A
:1014C0000A02882309F46AC080918A0090918B00F7
:1014D0008F5F9F4F19F488EC90E005C080918A00DF
:1014E00090918B00019690938B0080938A0080915D
:1014F000F701823019F0843009F01FC28DEA91E0C3
:1015000060E440E00E94330420918A0030918B0017
:1015100040E050E060E07DE281E391E00E94AC0FAA
:1015200094E055954795379527959A95D1F780E89A
:1015300090E060E070E0A9010E94F50382EB91E089
:1015400065E741E00E9433048EEE91E060E040E008
:101550000E94330420918A0030918B0040E050E0DB
:1015600060E876E988E990E00E94AC0F8FE390E0B4
:1015700061E070E0A9010E94F50310920D0228ECD1
:1015800030E048E853E103C0CA010197F1F7215068
:1015900030408FEF2F3F3807B9F7CFC11D996FC08B
:1015A00080910B02882309F46AC080918A0090918F
:1015B0008B00883C910519F48FEF9FEF05C0809157
:1015C0008A0090918B00019790938B0080938A0002
:1015D0008091F701823019F0843009F0AEC18DEAB4
:1015E00091E060E440E00E94330420918A00309151
:1015F0008B0040E050E060E07DE281E391E00E94FA
:10160000AC0F84E055954795379527958A95D1F786
:1016100080E890E060E070E0A9010E94F50382EBB1
:1016200091E065E741E00E9433048EEE91E060E0D6
:1016300040E00E94330420918A0030918B0040E00A
:1016400050E060E876E988E990E00E94AC0F8FE313
:1016500090E061E070E0A9010E94F50310920D0294
:1016600028EC30E048E853E103C0CA010197F1F7E4
:10167000215030408FEF2F3F3807B9F75EC11899DE
:101680005CC180910702882309F457C11092F901C7
:1016900051C199300CF413C1189908C08091070208
:1016A000882321F098509093F90144C1993029F58D
:1016B00019990CC080910902882341F08091F701AB
:1016C000863011F481E010C08F5F0EC01A9935C1C9
:1016D00080910802882309F430C18091F70181309C
:1016E00011F486E001C081508093F701833009F442
:1016F00021C180E680937C001DC19A3089F519993B
:1017000014C080910902882381F080918A00909111
:101710008B008F5F9F4F19F488EC90E01CC0809184
:101720008A0090918B00019616C01A9906C180918B
:101730000802882309F401C180918A0090918B00EE
:10174000883C910519F48FEF9FEF05C080918A00C6
:1017500090918B00019790938B0080938A00EAC050
:101760009B3041F5199910C080910902882361F0DE
:1017700080910102909102028F37910519F480E067
:1017800090E013C0019611C01A99D7C08091080249
:10179000882309F4D2C0809101029091020200973F
:1017A00019F48FE790E001C00197909302028093B3
:1017B0000102C0C09C3061F5199912C080910902E4
:1017C000882371F08091FF01909100022FEF8C39F6
:1017D000920718F084E690E016C08C599F4F13C012
:1017E0001A99ABC080910802882309F4A6C08091A1
:1017F000FF0190910002883C910518F48FEF9FEF54
:1018000002C084569040909300028093FF0192C0E2
:101810009D30D9F4199908C080910902882321F0DC
:101820008091F8018F5F0EC01A9987C080910802DD
:10183000882309F482C08091F801813011F48FEF80
:1018400001C081508093F80175C09E30F9F4199958
:101850000CC080910902882341F08091FB018F3FE9
:1018600011F481E010C08F5F0EC01A9966C080919C
:101870000802882309F461C08091FB01813011F4D2
:101880008FEF01C081508093FB0154C09F3009F05D
:1018900054C0199904C080910902882339F41A9917
:1018A0004CC080910802882309F447C090E08091E1
:1018B0000F02882309F491E090930F023BC019991D
:1018C0000FC080910902882359F0983011F480E00C
:1018D00002C0892F8F5F8093F90181E080930C0211
:1018E0001A9910C080910802882361F08091F90153
:1018F000882311F488E001C081508093F90181E0D0
:1019000080930C02189919C0809107028823A9F0CE
:101910008091F901882349F48FEF8093F90181E0E8
:1019200080930C021092070208C0885F8093F9012F
:101930001092070281E080930C020E940A03FF913B
:10194000EF91BF91AF919F918F917F916F915F9137
:101950004F913F912F911F910F900FBE0F901F90AD
:1019600018953D0A4F0A850AE00A5E0B010CC60C69
:10197000AE0DB80EE40F31119D122914D3159A172C
:101980007D197C1B931DC41F0B226824D9265C295A
:10199000F12B962E48310634CF36A1397A3C583F88
:1019A0003A421E450148E34AC14D9A506C533556A0
:1019B000F458A65B4A5EDF606363D4653168786A79
:1019C000A86CC06EBE70A172687412769E770B7997
:1019D000577A837B8D7C757D3B7EDD7E5B7FB67F1A
:1019E000EC7FFE7FEC7FB67F5B7FDD7E3B7E757D8F
:1019F0008D7C837B577A0B799E7712766874A172FF
:101A0000BE70C06EA86C786A3168D4656363DF60AD
:101A10004A5EA65BF45835566C539A50C14DE34A62
:101A200001481E453A42583F7A3CA139CF36063428
:101A30004831962EF12B5C29D92668240B22C41F2D
:101A4000931D7C1B7E199A17D31529149D123111F1
:101A5000E40FB80EAE0DC60C010C5E0BE00A850A51
:101A60004F0AFF7F0000D77F4706617F8B0C9C7E6B
:101A7000C712897DF818297C191F7C7A272583785D
:101A80001E2B4076FB30B573B936E170563CC96DFC
:101A9000CD416C6A1C47CE663F4CF1623351D65E35
:101AA000F455815A815AF455D65E3351F1623F4C58
:101AB000CE661C476C6ACD41C96D563CE170B936A3
:101AC000B573FB3040761E2B837827257C7A191F4F
:101AD000297CF818897DC7129C7E8B0C617F470694
:101AE000D77F0000FE7FB9F9D77F75F3617F39EDAD
:101AF0009C7E08E7897DE7E0297CD9DA7C7AE2D40C
:101B0000837805CF407647C9B573AAC3E17033BE69
:101B1000C96DE4B86C6AC1B3CE66CDAEF1620CAAF1
:101B2000D65E7FA5815A2AA1F5550F9D3351329972
:101B30003F4C94951C473792CD411F8F563C4C8C9F
:101B4000B936C089FB307D871E2B84852725D88335
:101B5000191F7782F8186481C7129F808B0C298027
:101B60004706000000018000800140004001C000E5
:101B7000C00120002001A000A00160006001E00081
:101B8000E001100010019000900150005001D000C1
:101B9000D00130003001B000B00170007001F000E1
:101BA000F001080008018800880148004801C800C9
:101BB000C80128002801A800A80168006801E80001
:101BC000E801180018019800980158005801D80041
:101BD000D80138003801B800B80178007801F80061
:101BE000F8013F922F921F930F93DF93CF93DC0165
:101BF000EB019927E2E6F9E100E810E02591359143
:101C00004D915D91B503B0012C031001691FBC0318
:101C1000790B300C611D791FDA03790B300C611DD3
:101C2000791F69937993699379930150104031F743
:101C3000CF91DF910F911F912F903F901124089524
:101C40003F922F925F924F927F926F929F928F92CC
:101C5000BF92AF92DF92CF92FF92EF921F930F93BA
:101C6000DF93CF93FC0181E090E0A0E4B0E004E0DA
:101C7000809F6001909FD00C7C019F938F93EF0118
:101C8000A09FC00DD11DB09FD00DFF93EF93BB243B
:101C9000AA2499270081118115950795688179817A
:101CA00075956795A801061B170B460F571F4193A3
:101CB000519320813181359527956A817B81759576
:101CC0006795A901261B370B460F571F4193519368
:101CD0000F01E2E6FAE1EA0DFB1D45915591659190
:101CE0007591F001950320010C031001491E9C031E
:101CF000590A300C411C591ED803590A300C411C9A
:101D0000591EB70340012E033001891EBE03990AF4
:101D1000700C811C991EFA03990A700C811C991E83
:101D2000260C371C481C591C49925992B5032001B6
:101D30002C031001491EBC03590A300C411C591ECA
:101D4000DA03590A300C411C591E970340010E0357
:101D50003001891E9E03990A700C811C991EF8039C
:101D6000990A700C811C991E2618370848085908D2
:101D700049925992AC0CBD1CB0FE8CCF04E0A09FE0
:101D8000C00DD11DE00DF11DB09FD00DF00D81E013
:101D9000E81AF90A09F07BCFEF91FF918F919F919B
:101DA000880F991FB695A795109609F060CFCF912F
:101DB000DF910F911F91EF90FF90CF90DF90AF9048
:101DC000BF908F909F906F907F904F905F902F90DB
:101DD0003F9008953F922F925F924F927F926F9221
:101DE0009F928F92BF92AF921F930F93DF93CF93E7
:101DF0005C01EB01E2E6FBE1992700E410E0A5912C
:101E0000B591AA0DBB1D2D913D914D915D91B303EF
:101E100020012A031001491EBA03590A300C411C43
:101E2000591EBA03590A300C411C591ED5034001F2
:101E30004C033001891EDC03990A700C811C991E29
:101E4000DC03990A700C811C991E260C371C481C57
:101E5000591C662477248824992421E030E0442703
:101E6000552770E1220C331C441C551C661C771C42
:101E7000881C991C220C331C441C551C661C771CA6
:101E8000881C991C2AF4620E731E841E951E04C0C1
:101E9000621A730A840A950A220F331F441F287F8F
:101EA000256097FC22507A95E9F646953795279557
:101EB000469537952795299339930150104009F09D
:101EC0009ECFCF91DF910F911F91AF90BF908F90D8
:101ED0009F906F907F904F905F902F903F90112434
:101EE0000895AC019927D703F0014E03D001E91FF3
:101EF000DE03F90BB00DE11DF91FFC03F90BB00D6A
:101F0000E11DF91FCF0111240895AA1BBB1B51E14C
:101F100007C0AA1FBB1FA617B70710F0A61BB70B59
:101F2000881F991F5A95A9F780959095BC01CD01FE
:101F3000089597FB092E07260AD077FD04D0E5DF28
:101F400006D000201AF4709561957F4F0895F6F73A
:101F5000909581959F4F089597FB092E05260ED0E9
:101F600057FD04D04BD00AD0001C38F45095409552
:101F7000309521953F4F4F4F5F4F0895F6F790955D
:101F80008095709561957F4F8F4F9F4F08952F9249
:101F90003F924F925F926F927F928F929F92AF92F9
:101FA000BF92CF92DF92EF92FF920F931F93CF9346
:101FB000DF93CDB7DEB7CA1BDB0B0FB6F894DEBFDD
:101FC0000FBECDBF09942A88398848885F846E8403
:101FD0007D848C849B84AA84B984C884DF80EE804D
:101FE000FD800C811B81AA81B981CE0FD11D0FB656
:101FF000F894DEBF0FBECDBFED010895A1E21A2E09
:10200000AA1BBB1BFD010DC0AA1FBB1FEE1FFF1F9C
:10201000A217B307E407F50720F0A21BB30BE40BEC
:10202000F50B661F771F881F991F1A9469F7609533
:102030007095809590959B01AC01BD01CF010895ED
:10204000F999FECF92BD81BDF89A992780B5089580
:04205000F894FFCF32
:1020540061646320706572696F64003C203E0064B3
:1020640069676974616C006F7363696C6C2E0076C8
:10207400312E3000666674206C69622E006279200D
:102084006368616E0073657267657900766F6C6F63
:1020940064696E003230313100692E313739652E72
:1020A4006E6574006C63645F736B69700061646374
:1020B4002070207374657000616463206572726FB0
:1020C400720064697361626C6564003020746F200F
:1020D4006473626C2E0073702E207363616C6500F0
:1020E400656E61626C6564006D6F64650073696739
:1020F4006E616C00737065637472756D003870780E
:102104003D00687A007879006475616C00756172CD
:1021140074007561727420627566006D656E750079
:1021240065786974006C636420736B697000616422
:102134006320636865636B0061626F757400646635
:102144007265712F323D000414FF010101FFFF98F5
:062154003A0A000002003F
:00000001FF
