:100000000C9438000C9455000C9455000C94550039
:100010000C9455000C9455000C9455000C9455000C
:100020000C9455000C9455000C9455000C945500FC
:100030000C9455000C9455000C9480040C945500BD
:100040000C9455000C9455000C948C090C9455009C
:100050000C9455000C9455000C9455000C945500CC
:100060000C9499040C9455000C9455000C94550074
:1000700011241FBECFEFD0E1DEBFCDBF11E0A0E065
:10008000B1E0EAE3FFE102C005900D92AA3FB1079B
:10009000D9F715E0AAEFB1E001C01D92AD39B10763
:1000A000E1F70E94C5070C949B0F0C94000010927E
:1000B000C50081E88093C40086E08093C20088E197
:1000C0008093C1000895982F109299051092980579
:1000D00020E030E002C02F5F3F4F8091C00085FDDF
:1000E00004C083E0283E3807B0F33093990520938D
:1000F00098059093C600089510929905109298055E
:1001000020E030E002C02F5F3F4F8091C00087FDAC
:1001100004C083E0283E3807B0F33093990520935C
:1001200098058091C60080931002089590910F0267
:1001300002C09091C6008091C00087FDFACF9093D5
:100140000F0208951F93182F0E947C0080930E02C7
:10015000873619F4812F0E94630090910F0202C02C
:100160009091C6008091C00087FDFACF90930F0256
:100170001F91089528E833E104C0F9013197F1F7A0
:1001800001970097D1F70895DF92EF92FF920F93B6
:100190001F93162FF72E792F96E0D92E03C0ED2D41
:1001A000EA95F1F7E22EEA94F1E0E21608F0F0E0C9
:1001B000232F2150E1E0231708F0E0E00F2F020F7A
:1001C00031E0021708F030E0E32B242F2150F1E05A
:1001D000241708F0F0E06E2F620F31E0621708F08C
:1001E00030E0F32B252F215041E0251708F040E0A7
:1001F0009F2F920F31E0921708F030E0432B212F10
:10020000215051E0211708F050E0B42FB20F31E037
:10021000B21708F030E0532B2F2D215041E02F155D
:1002200008F040E0A52FA20F31E0A21708F030E05F
:10023000432B282F2150E1E0281708F0E0E0F42FAD
:10024000F20F81E0F21708F080E0E82B71502E2DBC
:10025000302F462F592F1B2FFA2E8F2F7E0F2F3F17
:1002600009F09DCF0F3F09F09ACF6F3F09F097CF6C
:100270009F3F09F094CFBF3F09F091CFAF3F09F006
:100280008ECFFF3F09F08BCF7F3F09F088CF1F91C2
:100290000F91FF90EF90DF90089568B9823011F4CC
:1002A0005D9A01C05D985E9A80E090E036E003C000
:1002B000232F2A95F1F7019687309105C9F75E98AB
:1002C0005D9818B80895682F803420F05B9A5A988A
:1002D000605402C05A9A5B98606481E00E944D01AC
:1002E0000895682F686B81E00E944D0108951F9367
:1002F000162F0E946301812F0E9471011F910895A2
:100300000F931F93162F042F0E946301812F0E94C9
:10031000710182E0602F0E944D011F910F9108959D
:10032000FF920F931F93CF93DF93F82E8BB18C60C6
:100330008BB980910A0290910B0200E010E012C08C
:10034000802F0E947101C0E0D0E004C082E06F2DD8
:100350000E944D012196C134D105C1F70F5F1F4F97
:1003600080E490E00830110558F390930B028093DD
:100370000A0210930D0200930C02CDB7DEB7E5E040
:100380000C94710F8CEF8AB91BB88FEF87B918B82E
:1003900028EE33E048E853E103C0CA010197F1F7C2
:1003A000215030408FEF2F3F3807B9F78CE88BB9D9
:1003B00081E06FE30E944D0181E060EC0E944D01FD
:1003C00081E060E40E944D0181E068EB0E944D01F4
:1003D00080E00E94900108950E9477018BB18063B4
:1003E0008BB980E090E036E003C0232F2A95F1F727
:1003F000019687309105C9F78BB18F7C8BB988B195
:100400000895E82F262F30E0C901887F68E070E06A
:100410000E94F80E2770307041E050E002C0440F97
:10042000551F2A95E2F78E2F0E9480010895EF92C2
:10043000FF920F931F93E82E062F10E0C801887FCC
:1004400068E070E00E94F80EF62E8E2D0E94EC01FE
:100450000770107021E030E002C0220F331F0A95B0
:10046000E2F7482F422B8E2D6F2D0E9480011F91A5
:100470000F91FF90EF900895A0E0B0E0E2E4F2E089
:100480000C94530FD82EE62EFF24C701887F68E016
:1004900070E00E94F80E00271127061B170B095F5A
:1004A0001F4FC7E0D0E00BC08D2D0E9463018C2F41
:1004B0000E94710182E06FEF0E944D0121970C179D
:1004C0001D0794F38D2D0E9463018C2F0E947101F2
:1004D00027E030E040E0B70160957095677070707C
:1004E000E1E0F0E00AC0CF01022E02C0880F991FA0
:1004F0000A94E2F7482B21503040261737079CF723
:10050000442321F082E0642F0E944D01CDB7DEB775
:10051000E7E00C946F0FA0E0B0E0E1E9F2E00C94AA
:10052000530FD82E7B018B0123E0169507952A9552
:10053000E1F7C0E0D0E009C08C2F6D2D0E9477015B
:1005400082E06FEF0E944D012196C017D107A0F302
:10055000802F6D2D0E947701B7016770707020E0C9
:1005600030E040E0A7E0B0E0E1E0F0E0CD01821B48
:10057000930BEF0102C0CC0FDD1F8A95E2F74C2BE5
:100580002F5F3F4F6217730788F782E0642F0E9446
:100590004D01CDB7DEB7E7E00C946F0F90E0887F98
:1005A00068E070E00E94F80E862F0895EF92FF92A7
:1005B0000F931F93CF93DF93E82E162FF42E00E0B6
:1005C000C1E0D0E01EC0812F90E0877090709E0146
:1005D000082E02C0220F331F0A94E2F7022B07975E
:1005E00011F01F1569F48E2D0E946301812F0E9466
:1005F000CE020E94710182E0602F0E944D0100E056
:100600001F5FF11600F700930802CDB7DEB7E6E0F2
:100610000C94700F83B182708093FD0183B184705C
:100620008093FC0183B181708093FB0183B1807161
:100630008093FE0183B180728093FF0108958091C1
:10064000F1018F3F21F496958FE3891B08959695CC
:1006500096958FE3891B08950F931F931092F801CD
:100660001FE304E046C1A62FB0E0FD01EE0FFF1F1F
:10067000EA56FB4F81817091F1017F3F11F486951D
:1006800002C086958695912F981B492F50E0509374
:100690009404409393048091EE01843009F07EC06D
:1006A000623060F1FD01EE0FFF1FEE56FB4F8181BE
:1006B0007F3F11F4869502C086958695912F981BF1
:1006C000292F30E0309392042093910424173507AA
:1006D00048F4C901840F951F9695879590939705C7
:1006E000809396054217530788F4240F351F3695DB
:1006F000279530939B0520939A0508C05093970542
:100700004093960550939B0540939A056E37F0F5FC
:10071000AA0FBB1FA656BB4F1196EC917F3F29F441
:10072000E695812F8E1BE82F05C0E695E695912F63
:100730009E1BE92FF0E0F0939204E0939104E417FC
:10074000F50788F4CF01840F951F2091960530910D
:100750009705969587952817390708F4C90190934E
:100760009705809396054E175F0780F4E40FF51FF9
:1007700080919A0590919B05F695E795E817F90702
:1007800008F4FC01F0939B05E0939A05862F86956B
:1007900080939C056F5F6093F80179C0662361F1D7
:1007A000FD01EE0FFF1FEC56FB4F81817F3F11F4DF
:1007B000869502C086958695912F981B292F30E04B
:1007C00030939204209391042417350748F4C9010B
:1007D000840F951F9695879590939705809396051E
:1007E0004217530790F4240F351F36952795309301
:1007F0009B0520939A0509C0509397054093960551
:1008000050939B0540939A0502C06F37F0F5AA0FED
:10081000BB1FA856BB4F1196EC917F3F29F4E6957C
:10082000812F8E1BE82F05C0E695E695912F9E1B24
:10083000E92FF0E0F0939204E0939104E417F507B8
:1008400088F4CF01840F951F20919605309197056C
:10085000969587952817390708F4C901909397054D
:10086000809396054E175F0780F4E40FF51F809183
:100870009A0590919B05F695E795E817F90708F416
:10088000FC01F0939B05E0939A0560939C057F3FE4
:1008900091F4109295040AC080919C0540E00E945A
:1008A0008001809195048F5F8093950460919504F9
:1008B000683090F311C0009395040AC080919C05A4
:1008C00040E00E948001809195048F5F80939504A1
:1008D00060919504683090F380919C056091960535
:1008E00040919A050E94D6028091F8018F5F809313
:1008F000F8016091F80167FFB6CE1F910F9108953E
:100900001F920F920FB60F9211248F93EF93FF93C4
:100910001092850010928400EAE7F0E08081806404
:100920008083FF91EF918F910F900FBE0F901F90DA
:1009300018951F920F920FB60F9211242F933F9389
:100940004F935F936F937F938F939F93AF93EF93A7
:10095000FF938091FA0187FF05C08091EE018530F9
:1009600009F079C0A091EE01A53019F48FE78093CA
:10097000FA018A2F8150823028F0A43019F0A63075
:1009800009F042C040910602509107028091F601A1
:100990009091F7014817590738F01092070210920A
:1009A0000602109201022DC080910102882361F19C
:1009B00080917800909179002091780030917900B1
:1009C0008091FA01682F70E0FB01EE0FFF1FEA56DD
:1009D000FB4F80819181281B390B8091F20190910E
:1009E000F3018217930780F48091F4019091F5014F
:1009F0006817790748F44F5F5F4F509307024093A1
:100A000006021092FA0127C04091FA01242F30E02B
:100A10008091780090917900F901EE0FFF1FEA565E
:100A2000FB4F9695879591838083A33079F440FDA1
:100A300009C081E680937C0080917A008064809375
:100A40007A0006C080E680937C0002C0A53019F0D1
:100A50004F5F4093FA01FF91EF91AF919F918F917A
:100A60007F916F915F914F913F912F910F900FBEAA
:100A70000F901F9018951F93CF93DF931092090248
:100A800095E0899FE00111240CC0CE01810F911DDA
:100A90000E94930F682F82E00E944D011F5F109308
:100AA000090210910902153080F382E060E00E9493
:100AB0004D01DF91CF911F910895A0E0B0E0E3E6F2
:100AC000F5E00C944F0F962E59016A01EC01269720
:100AD000211531054105510591F58C2F0E946301C7
:100AE000892D0E94710180E30E943B0528C0C60148
:100AF000B5012AE030E040E050E00E940B0F7B019E
:100B00008C018C2F0E946301892D0E9471018E2D12
:100B1000805D0E943B052697C701A0E0B0E0A81ABF
:100B2000B90ACA0ADB0AC601B5012AE030E040E092
:100B300050E00E940B0FC901DA015C016D01A114A4
:100B4000B104C104D10499F6CDB7DEB7EBE00C9443
:100B50006B0F0F931F93CF93DF93EC01162F042F8E
:100B60000AC0812F0E946301802F0E947101899128
:100B70000E943B051A5F8881882399F7DF91CF9106
:100B80001F910F9108958091F1018A300CF489C171
:100B90008B3031F580E091E060E040E00E94A905F3
:100BA00060918A0070918B006055704023E07695CB
:100BB00067952A95E1F781E00E948B0220918A00D7
:100BC00030918B0040E050E08FE790E062E070E011
:100BD0000E945D058BE091E060E042E00E94A90583
:100BE0008091F1018231B1F58FE091E060E040E069
:100BF0000E94A90587E191E06AE041E00E94A90511
:100C00008FE191E060E042E00E94A90584E291E07A
:100C100060E044E00E94A9058DE291E060E045E0DB
:100C20000E94A90585E391E060E440E00E94A905E7
:100C30008CE391E066E441E00E94A90584E491E040
:100C400060E542E00E94A90589E491E060E444E0A7
:100C50000E94A9058091F1018F3091F484E591E023
:100C600060E040E00E94A9056091F00181E070E041
:100C70000E948B028BE091E060E042E00E94A905B7
:100C80008091F1018E30B9F48DE591E060E040E0B3
:100C90000E94A9052091EF0130E040E050E080E49F
:100CA00090E061E070E00E945D058BE091E060E023
:100CB00042E00E94A9058091F1018D30C1F488E6DF
:100CC00091E060E040E00E94A9052091F20130919E
:100CD000F30140E050E080E490E061E070E00E94C9
:100CE0005D058BE091E060E042E00E94A905809103
:100CF000F1018C3041F582E791E060E040E00E9434
:100D0000A9052091F4013091F5012115310549F033
:100D100040E050E080E490E061E070E00E945D051A
:100D200006C08CE791E060E041E00E94A9058BE0FD
:100D300091E060E042E00E94A90585E891E060E072
:100D400043E00E94A9058091F1018031F9F480E926
:100D500091E060E040E00E94A90521E030E00090D1
:100D6000030202C0220F331F0A94E2F7442737FD23
:100D70004095542F8FE390E061E070E00E945D05A4
:100D80008BE091E060E042E00E94A9058091F101D2
:100D90008131F9F48AE991E060E040E00E94A90520
:100DA00021E030E00090040202C0220F331F0A94B9
:100DB000E2F7442737FD4095542F8FE390E061E040
:100DC00070E00E945D058BE091E060E042E00E94EF
:100DD000A9058091F1018A3009F0D6C084EA91E03A
:100DE00060E040E00E94A9058091EE01813019F495
:100DF00089EA91E04BC0823019F480EB91E009C0A0
:100E0000833019F481EC91E041C08430B1F584EC79
:100E100091E060E041E00E94A9058091EE018230FE
:100E200011F0843031F489EB91E060E440E00E94FD
:100E3000A90520918A0030918B000090030202C026
:100E4000220F331F0A94E2F740E050E060E07DE2B9
:100E500081E391E00E942D0F94E0559547953795D9
:100E600027959A95D1F780E890E060E070E00E94C5
:100E70005D058EEB91E065E70AC0853019F489ECD9
:100E800091E004C0863031F48EEC91E060E041E006
:100E90000E94A9058BE091E060E042E00E94A90574
:100EA00008958F3F09F470C087ED91E060E040E065
:100EB0000E94A9058091F101882331F48CED91E025
:100EC00060E041E00E94A9058091F101823031F497
:100ED00080E091E060E041E00E94A9058091F1018D
:100EE000853031F48DE591E060E041E00E94A90594
:100EF0008091F101863031F484E591E060E041E0D9
:100F00000E94A9058091F101833031F482E791E0DC
:100F100060E041E00E94A9058091F101843031F444
:100F200088E691E060E041E00E94A9058091F1012E
:100F3000873031F480E991E060E041E00E94A9054A
:100F40008091F101883031F48AE991E060E041E07C
:100F50000E94A9058091F101893031F481EE91E080
:100F600060E041E00E94A9058091F101813031F4F7
:100F700084EA91E060E041E00E94A9058BE091E005
:100F800060E042E00E94A9050895A0E0B0E0EBEC2B
:100F9000F7E00C94530F84B1807C84B90F9A1798B2
:100FA00085B18F6385B91092C50081E88093C40034
:100FB00086E08093C20088E18093C1000E94C20154
:100FC00080E680937C008DED80937A0085E085BD7E
:100FD00021E020936E0084E080936F0016BC109295
:100FE00085001092840080E590E090938B008093C0
:100FF0008A0020938100789411E000E89FE3F92EA5
:101000008FE3E82EB0E4DB2EC9E0D0E0809100024F
:10101000882339F080E00E949001109200020E9423
:10102000C3058091FA018F3708F423C18091010232
:10103000882311F410930102109207021092060205
:101040008091EE01823019F0843009F06FC086E99A
:1010500094E061E172E00E94640D81E192E00E94FF
:10106000930D81E192E061E174E00E945D0E1092C7
:10107000F80157C0F0E0EE0FFF1FEF5EFB4F8091CD
:1010800004029E01281B31098081918102C096953E
:1010900087952A95E2F780939504803410F0E092CA
:1010A000950410929C050AC0822F805C40E00E944B
:1010B000800180919C058F5F80939C0560919C05C9
:1010C0002091F801673080F3822F90E08770907054
:1010D000892B59F4822F805C0E94630182E00E9478
:1010E000710182E061E00E944D018091F80190E081
:1010F0000090030202C0880F991F0A94E2F7805CF7
:101100009F4F90939404809393048038910520F42A
:10111000609195040E943C028091F8018F5F80935A
:10112000F801E091F801E03408F4A4CF8091EE01D9
:10113000813011F0843079F49091F9018091F001BF
:10114000981728F01093F9010E942C0390C09F5F1C
:101150009093F9018CC0833009F048C09091F90157
:101160008091F001981700F11093F901D092950445
:1011700016C01092F8010AC08091950440E00E94C8
:1011800080018091F8018F5F8093F8016091F801F0
:10119000683090F3809195048F5F809395048091DF
:1011A000950487FFE6CF03C09F5F9093F9011092EB
:1011B000950417C0F0E0EE0FFF1FDF01AA56BB4FEA
:1011C00011968C918695E856FB4F918196956F2DDF
:1011D000691B805C0E941702809195048E5F80934A
:1011E0009504E0919504E7FFE5CF41C0863081F595
:1011F0001092F80110929C0526C0E22FF0E0EE0F4D
:10120000FF1FEA56FB4F80819181880F892F881F2D
:10121000990B9195809395042F5F2093F8010E947C
:10122000A2008091980590919905885E934029F4D9
:1012300080919C058F5F80939C0580919C058A30EE
:1012400010F00093F8012091F80127FFD6CF0FC0CE
:10125000853069F48091940590919505880F892FC8
:10126000881F990B9195809395040E94A20010927B
:10127000FA010000CBCE8091EE01843011F0823073
:1012800031F489EB91E060E440E00E94A9052091EF
:101290008A0030918B000090030202C0220F331F9E
:1012A0000A94E2F740E050E060E07DE281E391E003
:1012B0000E942D0F64E055954795379527956A95BF
:1012C000D1F780E890E060E070E00E945D058EEB71
:1012D00091E065E741E00E94A9058091EE0181302F
:1012E00011F0843031F487EE91E060E040E00E943C
:1012F000A90520918A0030918B0040E050E060E029
:101300007DE281E391E00E942D0F8FE390E061E0A8
:1013100070E00E945D0508951F920F920FB60F9224
:1013200011240F931F932F933F934F935F936F93CA
:101330007F938F939F93AF93BF93EF93FF9301E0BE
:1013400016E011C00E943B09189908C08091FB016A
:10135000882321F01092F101009300020E940A03F9
:10136000812F8A95F1F71B9904C08091F1018F3F7D
:1013700049F39091F1019F3F09F0CBC0199937C013
:101380008091FD01882399F120918A0030918B0092
:101390006091EF0140E050E08FEF9FEFA0E0B0E000
:1013A000861B9109A109B10982179307A407B50704
:1013B0001CF480E590E006C080918A0090918B003B
:1013C000860F911D90938B0080938A000E943B09A9
:1013D00028EC30E048E853E103C0CA010197F1F777
:1013E000215030408FEF2F3F3807B9F785C01A9949
:1013F00030C08091FC01882361F120918A003091F6
:101400008B008091EF01482F50E0CA01805B9F4F15
:101410002817390718F48FEF9FEF06C080918A00D4
:1014200090918B00841B950B90938B0080938A0086
:101430000E943B0928EC30E048E853E103C0CA01B0
:101440000197F1F7215030408FEF2F3F3807B9F760
:1014500053C01C9928C08091FE01882321F18091FE
:101460008A0090918B008F5F9F4F19F480E590E088
:1014700005C080918A0090918B00019690938B001B
:1014800080938A000E943B0928EC30E048E853E151
:1014900003C0CA010197F1F7215030408FEF2F3F71
:1014A0003807B9F729C01D992AC08091FF01882308
:1014B00031F180918A0090918B008035910519F46B
:1014C0008FEF9FEF05C080918A0090918B0001976C
:1014D00090938B0080938A000E943B0928EC30E0B7
:1014E00048E853E103C0CA010197F1F721503040A9
:1014F0008FEF2F3F3807B9F71092010290C118996A
:101500008EC18091FB01882309F489C11092F101F9
:1015100083C19A300CF445C1189908C08091FB0131
:10152000882321F099509093F10176C19A3029F5E2
:1015300019990CC08091FD01882341F08091EE0142
:10154000863011F481E010C08F5F0EC01A9967C118
:101550008091FC01882309F462C18091EE01813001
:1015600011F486E001C081508093EE01833009F4CC
:1015700053C180E680937C004FC19B3089F5199957
:1015800014C08091FD01882381F080918A009091A0
:101590008B008F5F9F4F19F480E590E01CC0809115
:1015A0008A0090918B00019616C01A9938C18091DB
:1015B000FC01882309F433C180918A0090918B004B
:1015C0008035910519F48FEF9FEF05C080918A0057
:1015D00090918B00019790938B0080938A001CC19F
:1015E0009C3041F5199910C08091FD01882361F06C
:1015F0008091F4019091F5018F37910519F480E005
:1016000090E013C0019611C01A9909C18091FC01A4
:10161000882309F404C18091F4019091F5010097A9
:1016200019F48FE790E001C001979093F501809342
:10163000F401F2C09D3061F5199912C08091FD014D
:10164000882371F08091F2019091F3012FEF8C3992
:10165000920718F084E690E016C08C599F4F13C093
:101660001A99DDC08091FC01882309F4D8C08091CB
:10167000F2019091F301883C910518F48FEF9FEFF0
:1016800002C0845690409093F3018093F201C4C04D
:101690009E30D9F4199908C08091FD01882321F06A
:1016A0008091EF018F5F0EC01A99B9C08091FC0143
:1016B000882309F4B4C08091EF01813011F48FEFD9
:1016C00001C081508093EF01A7C09F30F9F41999B0
:1016D0000CC08091FD01882341F08091F0018F3F83
:1016E00011F481E010C08F5F0EC01A9998C08091EC
:1016F000FC01882309F493C08091F001813011F43A
:101700008FEF01C081508093F00186C0903119F5B0
:10171000199910C08091FD01882361F08091030226
:10172000853011F480E001C08F5F8093030281E077
:10173000809300021A9973C08091FC01882309F4F8
:101740006EC080910302882311F485E001C08150AE
:101750008093030261C0913109F061C0199910C0F2
:101760008091FD01882361F080910402863011F49C
:1017700080E001C08F5F8093040281E080930002CB
:101780001A994DC08091FC01882309F448C08091CA
:101790000402882311F486E001C081508093040282
:1017A0003BC019990FC08091FD01882359F09930F1
:1017B00011F480E002C0892F8F5F8093F10181E0F6
:1017C000809300021A9910C08091FC01882361F077
:1017D0008091F101882311F489E001C08150809348
:1017E000F10181E080930002189919C08091FB01FA
:1017F0008823A9F08091F101882349F48FEF809329
:10180000F10181E0809300021092FB0108C0875F24
:101810008093F1011092FB0181E0809300020E940D
:101820000A03FF91EF91BF91AF919F918F917F91AB
:101830006F915F914F913F912F911F910F910F9059
:101840000FBE0F901F9018953D0A4F0A850AE00AB7
:101850005E0B010CC60CAE0DB80EE40F31119D12DB
:101860002914D3159A177D197C1B931DC41F0B22B5
:101870006824D9265C29F12B962E48310634CF36C0
:10188000A1397A3C583F3A421E450148E34AC14DCE
:101890009A506C533556F458A65B4A5EDF6063631A
:1018A000D4653168786AA86CC06EBE70A172687425
:1018B00012769E770B79577A837B8D7C757D3B7E84
:1018C000DD7E5B7FB67FEC7FFE7FEC7FB67F5B7F4C
:1018D000DD7E3B7E757D8D7C837B577A0B799E7791
:1018E00012766874A172BE70C06EA86C786A316896
:1018F000D4656363DF604A5EA65BF45835566C536B
:101900009A50C14DE34A01481E453A42583F7A3C3D
:10191000A139CF3606344831962EF12B5C29D926D1
:1019200068240B22C41F931D7C1B7E199A17D315A4
:1019300029149D123111E40FB80EAE0DC60C010C26
:101940005E0BE00A850A4F0AFF7F0000D77F47063B
:10195000617F8B0C9C7EC712897DF818297C191F2A
:101960007C7A272583781E2B4076FB30B573B936F9
:10197000E170563CC96DCD416C6A1C47CE663F4C48
:10198000F1623351D65EF455815A815AF455D65ED0
:101990003351F1623F4CCE661C476C6ACD41C96D34
:1019A000563CE170B936B573FB3040761E2B837818
:1019B00027257C7A191F297CF818897DC7129C7EFF
:1019C0008B0C617F4706D77F0000FE7FB9F9D77F78
:1019D00075F3617F39ED9C7E08E7897DE7E0297C1E
:1019E000D9DA7C7AE2D4837805CF407647C9B573DB
:1019F000AAC3E17033BEC96DE4B86C6AC1B3CE66E8
:101A0000CDAEF1620CAAD65E7FA5815A2AA1F5550A
:101A10000F9D335132993F4C94951C473792CD41DD
:101A20001F8F563C4C8CB936C089FB307D871E2BEE
:101A300084852725D883191F7782F8186481C712F7
:101A40009F808B0C298047060000000180008001E8
:101A500040004001C000C00120002001A000A00102
:101A600060006001E000E0011000100190009001B2
:101A700050005001D000D00130003001B000B00162
:101A800070007001F000F001080008018800880172
:101A900048004801C800C80128002801A800A80182
:101AA00068006801E800E801180018019800980132
:101AB00058005801D800D80138003801B800B801E2
:101AC00078007801F800F8013F922F921F930F934E
:101AD000DF93CF93DC01EB019927E8E4F8E100E81C
:101AE00010E0259135914D915D91B503B0012C0326
:101AF0001001691FBC03790B300C611D791FDA03DB
:101B0000790B300C611D791F6993799369937993EF
:101B10000150104031F7CF91DF910F911F912F901D
:101B20003F90112408953F922F925F924F927F929F
:101B30006F929F928F92BF92AF92DF92CF92FF925D
:101B4000EF921F930F93DF93CF93FC0181E090E01E
:101B5000A0E4B0E004E0809F6001909FD00C7C0185
:101B60009F938F93EF01A09FC00DD11DB09FD00D0B
:101B7000FF93EF93BB24AA24992700811181159527
:101B800007956881798175956795A801061B170BE4
:101B9000460F571F419351932081318135952795E9
:101BA0006A817B8175956795A901261B370B460FC6
:101BB000571F419351930F01E8E4F9E1EA0DFB1D32
:101BC0004591559165917591F001950320010C03A4
:101BD0001001491E9C03590A300C411C591ED803A0
:101BE000590A300C411C591EB70340012E03300125
:101BF000891EBE03990A700C811C991EFA03990A6A
:101C0000700C811C991E260C371C481C591C4992CB
:101C10005992B50320012C031001491EBC03590A37
:101C2000300C411C591EDA03590A300C411C591E54
:101C3000970340010E033001891E9E03990A700C20
:101C4000811C991EF803990A700C811C991E261894
:101C500037084808590849925992AC0CBD1CB0FE8F
:101C60008CCF04E0A09FC00DD11DE00DF11DB09FF1
:101C7000D00DF00D81E0E81AF90A09F07BCFEF9161
:101C8000FF918F919F91880F991FB695A7951096F8
:101C900009F060CFCF91DF910F911F91EF90FF90EE
:101CA000CF90DF90AF90BF908F909F906F907F907C
:101CB0004F905F902F903F9008953F922F925F92A8
:101CC0004F927F926F929F928F92BF92AF921F938B
:101CD0000F93DF93CF935C01EB01E8E4FAE19927DE
:101CE00000E410E0A591B591AA0DBB1D2D913D9189
:101CF0004D915D91B30320012A031001491EBA03DF
:101D0000590A300C411C591EBA03590A300C411CA7
:101D1000591ED50340014C033001891EDC03990A8A
:101D2000700C811C991EDC03990A700C811C991E91
:101D3000260C371C481C591C6624772488249924B7
:101D400021E030E04427552770E1220C331C441C6D
:101D5000551C661C771C881C991C220C331C441CC7
:101D6000551C661C771C881C991C2AF4620E731E75
:101D7000841E951E04C0621A730A840A950A220FF3
:101D8000331F441F287F256097FC22507A95E9F67F
:101D900046953795279546953795279529933993F5
:101DA0000150104009F09ECFCF91DF910F911F910C
:101DB000AF90BF908F909F906F907F904F905F906B
:101DC0002F903F9011240895AC019927D703F0017B
:101DD0004E03D001E91FDE03F90BB00DE11DF91F21
:101DE000FC03F90BB00DE11DF91FCF01112408957B
:101DF00097FB092E07260AD077FD04D080D006D0A5
:101E000000201AF4709561957F4F0895F6F790952C
:101E100081959F4F0895A1E21A2EAA1BBB1BFD01BD
:101E20000DC0AA1FBB1FEE1FFF1FA217B307E407B9
:101E3000F50720F0A21BB30BE40BF50B661F771F11
:101E4000881F991F1A9469F76095709580959095F1
:101E50009B01AC01BD01CF01089597FB092E05261A
:101E60000ED057FD04D0D7DF0AD0001C38F45095AF
:101E70004095309521953F4F4F4F5F4F0895F6F7AE
:101E800090958095709561957F4F8F4F9F4F0895E6
:101E90002F923F924F925F926F927F928F929F927A
:101EA000AF92BF92CF92DF92EF92FF920F931F9368
:101EB000CF93DF93CDB7DEB7CA1BDB0B0FB6F89419
:101EC000DEBF0FBECDBF09942A88398848885F8459
:101ED0006E847D848C849B84AA84B984C884DF80CA
:101EE000EE80FD800C811B81AA81B981CE0FD11DAE
:101EF0000FB6F894DEBF0FBECDBFED010895AA1B4B
:101F0000BB1B51E107C0AA1FBB1FA617B70710F0E4
:101F1000A61BB70B881F991F5A95A9F78095909516
:101F2000BC01CD010895F999FECF92BD81BDF89A0B
:0A1F3000992780B50895F894FFCFBB
:101F3A0061646320706572696F64003C203E0064CE
:101F4A0069676974616C006F7363696C6C2E0076E3
:101F5A00312E3000666674206C69622E0062792028
:101F6A006368616E0073657267657900766F6C6F7E
:101F7A0064696E003230313100692E313739652E8D
:101F8A006E6574006C636420736B697000616463CE
:101F9A002070207374657000616463206572726FCB
:101FAA00720061646320636865636B0064697361CE
:101FBA00626C6564003020746F206473626C2E005A
:101FCA0073702E20787A6F6F6D0073702E20797A75
:101FDA006F6F6D006D6F6465007369676E616C0089
:101FEA00737065637472756D003870783D00687A35
:101FFA00007879006475616C0075617274007561AE
:10200A00727420627566006D656E75006578697414
:10201A000061626F75740064667265713D00041434
:0A202A0001FF204E05000003010134
:00000001FF
