:100000000C9438000C9455000C9455000C94550039
:100010000C9455000C9455000C9455000C9455000C
:100020000C9455000C9455000C9455000C945500FC
:100030000C9455000C9453030C943A030C941F0336
:100040000C9455000C9455000C9414090C94550014
:100050000C9455000C9455000C9455000C945500CC
:100060000C946F030C9455000C9455000C9455009F
:1000700011241FBECFEFD0E1DEBFCDBF11E0A0E065
:10008000B1E0E4E0F0E202C005900D92AC3CB107B3
:10009000D9F715E0ACECB1E001C01D92A437B1076F
:1000A000E1F70E9436040C9400100C9400001092AA
:1000B000C5008DE48093C40086E08093C20088E18F
:1000C0008093C1000895982F1092700510926F05CB
:1000D00020E030E002C02F5F3F4F8091C00085FDDF
:1000E00004C083E0283E3807B0F3309370052093B6
:1000F0006F059093C60008951092700510926F05D9
:1001000020E030E002C02F5F3F4F8091C00087FDAC
:1001100004C083E0283E3807B0F330937005209385
:100120006F058091C6008093E60108959091E501E6
:1001300002C09091C6008091C00087FDFACF9093D5
:10014000E50108951F93182F0E947C008093E4011D
:10015000873619F4812F0E9463009091E50102C057
:100160009091C6008091C00087FDFACF9093E50181
:100170001F91089528EB3BE004C0F9013197F1F796
:1001800001970097D1F70895DF92EF92FF920F93B6
:100190001F93162FF72E792F94E0D92E03C0ED2D43
:1001A000EA95F1F7E22EEA94F1E0E21608F0F0E0C9
:1001B000232F2150E1E0231708F0E0E00F2F020F7A
:1001C00031E0021708F030E0E32B242F2150F1E05A
:1001D000241708F0F0E06E2F620F31E0621708F08C
:1001E00030E0F32B252F215041E0251708F040E0A7
:1001F0009F2F920F31E0921708F030E0432B212F10
:10020000215051E0211708F050E0B42FB20F31E037
:10021000B21708F030E0532B2F2D215041E02F155D
:1002200008F040E0A52FA20F31E0A21708F030E05F
:10023000432B282F2150E1E0281708F0E0E0F42FAD
:10024000F20F81E0F21708F080E0E82B71502E2DBC
:10025000302F462F592F1B2FFA2E8F2F7E0F2F3F17
:1002600009F09DCF0F3F09F09ACF6F3F09F097CF6C
:100270009F3F09F094CFBF3F09F091CFAF3F09F006
:100280008ECFFF3F09F08BCF7F3F09F088CF1F91C2
:100290000F91FF90EF90DF90089568B9823011F4CC
:1002A0005D9A01C05D985E9A80E090E034E003C002
:1002B000232F2A95F1F7019687309105C9F75E98AB
:1002C0005D9818B80895682F803420F05B9A5A988A
:1002D000605402C05A9A5B98606481E00E944D01AC
:1002E0000895682F686B81E00E944D0108951F9367
:1002F000162F0E946301812F0E9471011F910895A2
:100300000F931F93162F042F0E946301812F0E94C9
:10031000710182E0602F0E944D011F910F9108959D
:10032000FF920F931F93CF93DF93F82E8BB18C60C6
:100330008BB98091E0019091E10100E010E012C0E2
:10034000802F0E947101C0E0D0E004C082E06F2DD8
:100350000E944D012196C134D105C1F70F5F1F4F97
:1003600080E490E00830110558F39093E101809308
:10037000E0011093E3010093E201CDB7DEB7E5E0C1
:100380000C94EA0F8CEF8AB91BB88FEF87B918B8B5
:1003900028EE33E048EB5BE003C0CA010197F1F7B8
:1003A000215030408FEF2F3F3807B9F78CE88BB9D9
:1003B00081E06FE30E944D0181E060EC0E944D01FD
:1003C00081E060E40E944D0181E068EB0E944D01F4
:1003D00080E00E94900108950E9477018BB18063B4
:1003E0008BB980E090E034E003C0232F2A95F1F729
:1003F000019687309105C9F78BB18F7C8BB988B195
:100400000895E82F262F30E0C901887F68E070E06A
:100410000E94710F2770307041E050E002C0440F1D
:10042000551F2A95E2F78E2F0E9480010895EF92C2
:10043000FF920F931F93E82E062F10E0C801887FCC
:1004400068E070E00E94710FF62E8E2D0E94EC0184
:100450000770107021E030E002C0220F331F0A95B0
:10046000E2F7482F422B8E2D6F2D0E9480011F91A5
:100470000F91FF90EF900895A0E0B0E0E2E4F2E089
:100480000C94CC0FD82EE62EFF24C701887F68E09D
:1004900070E00E94710F00271127061B170B095FE0
:1004A0001F4FC7E0D0E00BC08D2D0E9463018C2F41
:1004B0000E94710182E06FEF0E944D0121970C179D
:1004C0001D0794F38D2D0E9463018C2F0E947101F2
:1004D00027E030E040E0B70160957095677070707C
:1004E000E1E0F0E00AC0CF01022E02C0880F991FA0
:1004F0000A94E2F7482B21503040261737079CF723
:10050000442321F082E0642F0E944D01CDB7DEB775
:10051000E7E00C94E80FA0E0B0E0E1E9F2E00C9431
:10052000CC0FD82E7B018B0123E0169507952A95D9
:10053000E1F7C0E0D0E009C08C2F6D2D0E9477015B
:1005400082E06FEF0E944D012196C017D107A0F302
:10055000802F6D2D0E947701B7016770707020E0C9
:1005600030E040E0A7E0B0E0E1E0F0E0CD01821B48
:10057000930BEF0102C0CC0FDD1F8A95E2F74C2BE5
:100580002F5F3F4F6217730788F782E0642F0E9446
:100590004D01CDB7DEB7E7E00C94E80F90E0887F1F
:1005A00068E070E00E94710F862F0895EF92FF922D
:1005B0000F931F93CF93DF93E82E162FF42E00E0B6
:1005C000C1E0D0E01EC0812F90E0877090709E0146
:1005D000082E02C0220F331F0A94E2F7022B07975E
:1005E00011F01F1569F48E2D0E946301812F0E9466
:1005F000CE020E94710182E0602F0E944D0100E056
:100600001F5FF11600F70093DE01CDB7DEB7E6E01D
:100610000C94E90F83B182708093CF0183B1847011
:100620008093CE0183B181708093CD0183B18071BD
:100630008093D00183B180728093D10108951F927D
:100640000F920FB60F9211248F939F938091D50133
:100650009091D301882321F0992329F0915001C072
:100660009F5F9093D3019F918F910F900FBE0F903A
:100670001F9018951F920F920FB60F9211248F930F
:10068000EF93FF931092850010928400EAE7F0E068
:10069000808180648083FF91EF918F910F900FBED6
:1006A0000F901F9018951F920F920FB60F92112462
:1006B0008F938091D501882361F08091D3018823A5
:1006C00041F481E08093D40180916F008C7F80930E
:1006D0006F008F910F900FBE0F901F9018951F9273
:1006E0000F920FB60F9211242F933F934F935F9366
:1006F0008F939F93EF93FF938091CC0187FF04C06A
:100700008091C501853039F54091C501453019F416
:100710008FE78093CC015091CC01252F30E0809160
:10072000780090917900F901EE0FFF1FE359FB4F1C
:100730009695879591838083433041F450FD02C0A4
:1007400081E601C080E680937C0002C0453019F04C
:100750005F5F5093CC01FF91EF919F918F915F91DB
:100760004F913F912F910F900FBE0F901F901895B2
:10077000AC019B014617570708F49A01C901089577
:10078000AC019B016417750708F49A01C90108952B
:100790001F93CF93DF931092DF0195E0899FE001D3
:1007A00011240CC0CE01810F911D0E94F80F682FFB
:1007B00082E00E944D011F5F1093DF011091DF0165
:1007C000153080F382E060E00E944D01DF91CF910F
:1007D0001F910895A0E0B0E0E0EFF3E00C94CC0F9F
:1007E000D62EEA014AEFE42E4FEFF42EE80EF91E62
:1007F0001CC0CE016AE070E00E945D0F8C018E2D5E
:100800000E9463018D2D0E947101802F805D0E94E6
:10081000C8038AEF9FEFE80EF91ECE01801B910BF3
:100820006AE070E00E945D0FEB01209711F7CDB7F1
:10083000DEB7E7E00C94E80F0F931F93CF93DF939D
:10084000EC01162F042F0AC0812F0E946301802F14
:100850000E94710189910E94C8031A5F88818823D0
:1008600099F7DF91CF911F910F910895A4E0B0E027
:10087000ECE3F4E00C94C10F84B1807C84B90F9A4E
:10088000179885B18F6385B91092C5008DE4809368
:10089000C40086E08093C20088E18093C1000E947A
:1008A000C20180E680937C008DED80937A0083E521
:1008B0008CBD85E085BD21E020936E0084E08093AF
:1008C0006F0016BC109285001092840088E290E0C0
:1008D00090938B0080938A0020938100789480917C
:1008E000CC018F3708F49EC480916E008E7F809378
:1008F0006E0080916F008B7F80936F001092D30108
:10090000109285001092840080916F008160809326
:100910006F008091D201882309F433C180E00E94E6
:1009200090011092D2018091C70186300CF4DEC094
:100930008630D1F480E091E060E040E00E941C0449
:1009400060918A0070918B006852704023E0769528
:1009500067952A95E1F781E00E948B028AE091E099
:1009600060E042E00E941C048091C7018A30B1F52A
:100970008EE091E060E040E00E941C0486E191E09E
:100980006AE041E00E941C048EE191E060E042E0F8
:100990000E941C0483E291E060E044E00E941C0499
:1009A0008CE291E060E045E00E941C0484E391E069
:1009B00060E440E00E941C048BE391E066E441E0C7
:1009C0000E941C0483E491E060E542E00E941C0464
:1009D00088E491E060E444E00E941C048091C70137
:1009E000893091F483E591E060E040E00E941C04CE
:1009F0006091C90181E070E00E948B028AE091E081
:100A000060E042E00E941C048091C7018730A9F495
:100A10008CE591E060E040E00E941C044091C6013A
:100A200080E490E061E070E050E00E94EA038AE038
:100A300091E060E042E00E941C048091C701883090
:100A400009F09FC085E691E060E040E00E941C0450
:100A50008091C501813019F48AE691E088C0823026
:100A600019F481E791E009C0833019F482E891E03C
:100A70007EC0843081F585E891E060E041E00E942D
:100A80001C048091C501823011F0843031F48AE772
:100A900091E060E440E00E941C0420918A003091C3
:100AA0008B0040E050E060E07BE187EB90E00E944B
:100AB000A60F94E055954795379527959A95D1F7C8
:100AC00080E890E060E070E0A9010E94EA038FE70F
:100AD00091E065E74DC0853019F48AE891E047C0A0
:100AE000863009F048C08FE891E041C08F3F09F49B
:100AF00048C088E991E060E040E00E941C048091D9
:100B0000C701882331F48DE991E060E041E00E9463
:100B10001C048091C701813031F480E091E060E0F5
:100B200041E00E941C048091C701823031F482EAC6
:100B300091E060E041E00E941C048091C701843094
:100B400031F48DEA91E060E041E00E941C04809164
:100B5000C701853031F486EB91E060E041E00E940E
:100B60001C048091C701833031F485E691E060E098
:100B700041E00E941C048AE091E060E042E00E94B3
:100B80001C048091C7019091C5018F3F09F038C2C4
:100B9000923021F0943011F0913081F48DE694E0A0
:100BA00067EE71E00E94C90D87EE91E00E94F80D9A
:100BB00087EE91E067EE73E00E94C20E8091C5015E
:100BC000823019F0843009F046C01092C8013EC04E
:100BD000F0E0EE0FFF1FE951FC4F81818695809375
:100BE0006C04803418F02FE320936C04109273058A
:100BF0000AC0822F805C40E00E94800180917305D2
:100C00008F5F80937305609173052091C8016730F1
:100C100080F3822F90E087709070892B59F4822F97
:100C2000805C0E94630182E00E94710182E061E0C9
:100C30000E944D018091C801805C60916C040E940B
:100C40003C028091C8018F5F8093C801E091C80188
:100C5000E03408F4BDCF8091C501813019F08430B3
:100C600009F083C19091CA018091C901981708F4D5
:100C700078C181E08093CA011092C8016DC1809152
:100C8000C501A42FB0E0843009F0B4C0FD01EE0F1F
:100C9000FF1FE359FB4F818186958B831C822FE3D5
:100CA00030E08B819C81281B390B30936B0420939F
:100CB0006A04423080F1FD01EE0FFF1FE759FB4F40
:100CC0008181882E869499248FE390E08819990970
:100CD00090936904809368048217930740F4820F0D
:100CE000931F9695879590936E0580936D0520913F
:100CF00068043091690480916A0490916B048217B2
:100D0000930788F4820F931F9695879590937205A9
:100D10008093710508C030936E0520936D05309364
:100D20007205209371054E3708F043C0AA0FBB1F10
:100D3000AF58BB4F11968C91682E669477248FE341
:100D400090E0861997099093690480936804209134
:100D50006A0430916B048217930780F4820F931F0B
:100D600020916D0530916E05969587952817390766
:100D700008F4C90190936E0580936D052091680475
:100D80003091690480916A0490916B0482179307F3
:100D900080F4820F931F2091710530917205969512
:100DA00087958217930708F4C90190937205809381
:100DB000710510926C040AC0822F869540E00E9453
:100DC000800180916C048F5F80936C0460916C044F
:100DD0002091C801683080F3822F869560916D055F
:100DE000409171050E94D6028091C8018F5F809367
:100DF000C801ADC0FD01EE0FFF1FE359FB4F81811C
:100E0000482E469455242FE330E0241935093093B9
:100E10006B0420936A04442381F1FD01EE0FFF1F50
:100E2000E559FB4F8181282E269433248FE390E0EF
:100E30008219930990936904809368048217930739
:100E400040F4820F931F9695879590936E0580933B
:100E50006D05209168043091690480916A04909135
:100E60006B048217930790F4820F931F96958795D2
:100E7000909372058093710509C030936E0520939D
:100E80006D05309372052093710503C04F3708F04C
:100E900045C0AA0FBB1FA159BB4F11968C918695D7
:100EA00089831A828FE390E0A981BA818A1B9B0B08
:100EB000909369048093680420916A0430916B04D4
:100EC0008217930780F4820F931F20916D05309154
:100ED0006E05969587952817390708F4C9019093F0
:100EE0006E0580936D0520916804309169048091AE
:100EF0006A0490916B048217930780F4820F931F0A
:100F00002091710530917205969587958217930708
:100F100008F4C901909372058093710510926C04D6
:100F20000AC08091C80140E00E94800180916C0459
:100F30008F5F80936C0460916C04683090F38091B3
:100F4000C80160916D05409171050E94D6028091A3
:100F5000C8018F5F8093C8014091C80147FF8FCEC1
:100F600091C09F5F9093CA018DC0833009F08AC001
:100F70009091CA018091C901981700F181E0809396
:100F8000CA0180E414C01092C8010AC080916C04A8
:100F900040E00E9480018091C8018F5F8093C8016A
:100FA0006091C801683090F380916C048F5F8093EA
:100FB0006C0480916C0487FFE6CF03C09F5F909321
:100FC000CA0110926C0417C0F0E0EE0FFF1FDF01A2
:100FD000A359BB4F11968C918695E159FB4F918196
:100FE00096956FE3691B805C0E94170280916C04E8
:100FF0008E5F80936C04E0916C04E7FFE5CF42C004
:10100000963089F51092C8011092730527C0E22F1F
:10101000F0E0EE0FFF1FE359FB4F80819181880FB5
:10102000892F881F990B919580936C042F5F2093D3
:10103000C8010E94A20080916F0590917005885EA2
:10104000934029F4809173058F5F8093730580919D
:1010500073058A3018F0E0E8E093C8012091C801D8
:1010600027FFD5CF0FC0953069F480916B05909123
:101070006C05880F892F881F990B919580936C04BC
:101080000E94A20080916F008E7F80936F0020915C
:101090008400309185008091D30190E0A0E0B0E021
:1010A0006C01BB24AA2440E050E0A20EB31EC41E73
:1010B000D51EA092D601B092D701C092D801D0928D
:1010C000D9018091DA019091DB01A091DC01B0910E
:1010D000DD018A159B05AC05BD0520F58091C70192
:1010E0008F3F01F5E0908A00F0908B0020918A00FC
:1010F00030918B0000E010E0EA0CFB1C0C1D1D1D64
:1011000040E050E0C601B5010E94840FE61AF70ADC
:10111000080B190BE092DA01F092DB010093DC017D
:101120001093DD012091DA013091DB014091DC0167
:101130005091DD01A090D601B090D701C090D801A8
:10114000D090D901A216B306C406D50608F056C041
:101150008091C7018F3F09F051C02A193B094C0902
:101160005D092093D6013093D7014093D801509365
:10117000D901109285001092840030938900209349
:1011800088008091880090918900A0E0B0E0281B41
:10119000390B4A0B5B0B9A01442755272093D30147
:1011A0001092D40181E08093D501179A8CE390E0EE
:1011B00064E070E0422F50E00E94EA034091880012
:1011C000509189008CE390E065E070E00E94EA03B2
:1011D0004091D6015091D7018FE790E065E070E033
:1011E0000E94EA0380916F00836080936F0001C0CA
:1011F000000080916F0081FDFBCF179880918A00DD
:1012000090918B00909385008093840080916F0073
:10121000846080936F0080916E00816080936E0087
:101220001092CC0100005BCB1F920F920FB60F9271
:1012300011241F932F933F934F935F936F937F934B
:101240008F939F93AF93BF93EF93FF9314E05BC093
:101250008091C501823011F0843031F48AE791E049
:1012600060E440E00E941C0420918A0030918B00D1
:1012700040E050E060E07BE187EB90E00E94A60F49
:10128000A4E05595479537952795AA95D1F780E81D
:1012900090E060E070E0A9010E94EA038FE791E02E
:1012A00065E741E00E941C048091C501813011F086
:1012B000843031F48CEB91E060E040E00E941C044B
:1012C00020918A0030918B0040E050E060E87DE89A
:1012D0008BE590E00E94A60F8FE390E061E070E064
:1012E000A9010E94EA03189909C08091CD018823C1
:1012F00029F01092C70181E08093D2010E940A0375
:10130000812F8A95F1F71B9905C08091C7018F3F06
:1013100009F49ECF9091C7019F3F09F0FBC1199935
:1013200084C08091CF01882309F47FC020918A0076
:1013300030918B006091C60140E050E08FEF9FEF4D
:10134000A0E0B0E0861B9109A109B10982179307BB
:10135000A407B5071CF488E290E006C080918A00DB
:1013600090918B00860F911D90938B0080938A0043
:101370008091C501823019F0843009F0B6C28AE745
:1013800091E060E440E00E941C0420918A003091CA
:101390008B0040E050E060E07BE187EB90E00E9452
:1013A000A60FF4E05595479537952795FA95D1F70F
:1013B00080E890E060E070E0A9010E94EA038FE716
:1013C00091E065E741E00E941C048CEB91E060E055
:1013D00040E00E941C0420918A0030918B0040E084
:1013E00050E060E87DE88BE590E00E94A60F8FE377
:1013F00090E061E070E0A9010E94EA031092DA0136
:101400001092DB011092DC011092DD0128EC30E03B
:1014100048EB5BE003C0CA010197F1F7215030406F
:101420008FEF2F3F3807B9F760C21A997CC08091BF
:10143000CE01882309F477C020918A0030918B0077
:101440008091C601482F50E0CA01889628173907B5
:1014500018F48FEF9FEF06C080918A0090918B0067
:10146000841B950B90938B0080938A008091C5011B
:10147000823019F0843009F038C28AE791E060E4E4
:1014800040E00E941C0420918A0030918B0040E0D3
:1014900050E060E07BE187EB90E00E94A60FE4E083
:1014A0005595479537952795EA95D1F780E890E0CF
:1014B00060E070E0A9010E94EA038FE791E065E730
:1014C00041E00E941C048CEB91E060E040E00E944F
:1014D0001C0420918A0030918B0040E050E060E8CD
:1014E0007DE88BE590E00E94A60F8FE390E061E03D
:1014F00070E0A9010E94EA031092DA011092DB0168
:101500001092DC011092DD0128EC30E048EB5BE04A
:1015100003C0CA010197F1F7215030408FEF2F3FF0
:101520003807B9F7E2C11C9975C08091D0018823B2
:1015300009F470C080918A0090918B008F5F9F4F5B
:1015400019F488E290E005C080918A0090918B00A8
:10155000019690938B0080938A008091C501823020
:1015600019F0843009F0C1C18AE791E060E440E0FD
:101570000E941C0420918A0030918B0040E050E0D2
:1015800060E07BE187EB90E00E94A60F74E0559548
:101590004795379527957A95D1F780E890E060E0F8
:1015A00070E0A9010E94EA038FE791E065E741E05E
:1015B0000E941C048CEB91E060E040E00E941C045F
:1015C00020918A0030918B0040E050E060E87DE897
:1015D0008BE590E00E94A60F8FE390E061E070E061
:1015E000A9010E94EA031092DA011092DB01109225
:1015F000DC011092DD0128EC30E048EB5BE003C039
:10160000CA010197F1F7215030408FEF2F3F380783
:10161000B9F76BC11D9974C08091D101882309F479
:101620006FC080918A0090918B00889719F48FEF9A
:101630009FEF05C080918A0090918B000197909355
:101640008B0080938A008091C501823019F084302C
:1016500009F04BC18AE791E060E440E00E941C047D
:1016600020918A0030918B0040E050E060E07BE107
:1016700087EB90E00E94A60F64E05595479537955B
:1016800027956A95D1F780E890E060E070E0A901C5
:101690000E94EA038FE791E065E741E00E941C04A5
:1016A0008CEB91E060E040E00E941C0420918A00F5
:1016B00030918B0040E050E060E87DE88BE590E001
:1016C0000E94A60F8FE390E061E070E0A9010E9404
:1016D000EA031092DA011092DB011092DC01109201
:1016E000DD0128EC30E048EB5BE003C0CA01019764
:1016F000F1F7215030408FEF2F3F3807B9F7F5C091
:101700001899F3C08091CD01882309F4EEC010929E
:10171000C701E8C096300CF4A2C0189908C08091A7
:10172000CD01882321F095509093C701DBC09830FC
:1017300029F519990CC08091CF01882341F080913F
:10174000C501863011F481E010C08F5F0EC01A9978
:10175000CCC08091CE01882309F4C7C08091C50117
:10176000813011F486E001C081508093C50183303F
:1017700009F4B8C080E680937C00B4C0963081F54F
:10178000199914C08091CF01882381F080918A003B
:1017900090918B008F5F9F4F19F488E290E01BC0FF
:1017A00080918A0090918B00019615C01A999DC076
:1017B0008091CE01882309F498C080918A0090918D
:1017C0008B00889719F48FEF9FEF05C080918A00F6
:1017D00090918B00019790938B0080938A0082C038
:1017E0009730D9F4199908C08091CF01882321F04E
:1017F0008091C6018F5F0EC01A9977C08091CE018B
:10180000882309F472C08091C601813011F48FEFF2
:1018100001C081508093C60165C0993009F065C050
:1018200019990CC08091CF01882341F08091C901A2
:101830008F3F11F481E010C08F5F0EC01A9955C020
:101840008091CE01882309F450C08091C901813074
:1018500011F48FEF01C081508093C90143C01999E1
:101860000FC08091CF01882359F0953011F480E0AA
:1018700002C0892F8F5F8093C70181E08093D201DE
:101880001A9910C08091CE01882361F08091C70120
:10189000882311F485E001C081508093C70181E065
:1018A0008093D201189921C08091CD018823E9F05D
:1018B0008091C701882389F41092DA011092DB012C
:1018C0001092DC011092DD018FEF8093C70181E05F
:1018D0008093D2011092CD0108C08B5F8093C70125
:1018E0001092CD0181E08093D2010E940A03FF9102
:1018F000EF91BF91AF919F918F917F916F915F9188
:101900004F913F912F911F910F900FBE0F901F90FD
:1019100018953D0A4F0A850AE00A5E0B010CC60CB9
:10192000AE0DB80EE40F31119D122914D3159A177C
:101930007D197C1B931DC41F0B226824D9265C29AA
:10194000F12B962E48310634CF36A1397A3C583FD8
:101950003A421E450148E34AC14D9A506C533556F0
:10196000F458A65B4A5EDF606363D4653168786AC9
:10197000A86CC06EBE70A172687412769E770B79E7
:10198000577A837B8D7C757D3B7EDD7E5B7FB67F6A
:10199000EC7FFE7FEC7FB67F5B7FDD7E3B7E757DDF
:1019A0008D7C837B577A0B799E7712766874A1724F
:1019B000BE70C06EA86C786A3168D4656363DF60FE
:1019C0004A5EA65BF45835566C539A50C14DE34AB3
:1019D00001481E453A42583F7A3CA139CF36063479
:1019E0004831962EF12B5C29D92668240B22C41F7E
:1019F000931D7C1B7E199A17D31529149D12311142
:101A0000E40FB80EAE0DC60C010C5E0BE00A850AA1
:101A10004F0AFF7F0000D77F4706617F8B0C9C7EBB
:101A2000C712897DF818297C191F7C7A27258378AD
:101A30001E2B4076FB30B573B936E170563CC96D4C
:101A4000CD416C6A1C47CE663F4CF1623351D65E85
:101A5000F455815A815AF455D65E3351F1623F4CA8
:101A6000CE661C476C6ACD41C96D563CE170B936F3
:101A7000B573FB3040761E2B837827257C7A191F9F
:101A8000297CF818897DC7129C7E8B0C617F4706E4
:101A9000D77F0000FE7FB9F9D77F75F3617F39EDFD
:101AA0009C7E08E7897DE7E0297CD9DA7C7AE2D45C
:101AB000837805CF407647C9B573AAC3E17033BEBA
:101AC000C96DE4B86C6AC1B3CE66CDAEF1620CAA42
:101AD000D65E7FA5815A2AA1F5550F9D33513299C3
:101AE0003F4C94951C473792CD411F8F563C4C8CF0
:101AF000B936C089FB307D871E2B84852725D88386
:101B0000191F7782F8186481C7129F808B0C298077
:101B10004706000000018000800140004001C00035
:101B2000C00120002001A000A00160006001E000D1
:101B3000E001100010019000900150005001D00011
:101B4000D00130003001B000B00170007001F00031
:101B5000F001080008018800880148004801C80019
:101B6000C80128002801A800A80168006801E80051
:101B7000E801180018019800980158005801D80091
:101B8000D80138003801B800B80178007801F800B1
:101B9000F8013F922F921F930F93DF93CF93DC01B5
:101BA000EB019927E2E1F9E100E810E02591359198
:101BB0004D915D91B503B0012C031001691FBC0369
:101BC000790B300C611D791FDA03790B300C611D24
:101BD000791F69937993699379930150104031F794
:101BE000CF91DF910F911F912F903F901124089575
:101BF0003F922F925F924F927F926F929F928F921D
:101C0000BF92AF92DF92CF92FF92EF921F930F930A
:101C1000DF93CF93FC0181E090E0A0E4B0E004E02A
:101C2000809F6001909FD00C7C019F938F93EF0168
:101C3000A09FC00DD11DB09FD00DFF93EF93BB248B
:101C4000AA249927008111811595079568817981CA
:101C500075956795A801061B170B460F571F4193F3
:101C6000519320813181359527956A817B817595C6
:101C70006795A901261B370B460F571F41935193B8
:101C80000F01E2E1FAE1EA0DFB1D459155916591E5
:101C90007591F001950320010C031001491E9C036E
:101CA000590A300C411C591ED803590A300C411CEA
:101CB000591EB70340012E033001891EBE03990A45
:101CC000700C811C991EFA03990A700C811C991ED4
:101CD000260C371C481C591C49925992B503200107
:101CE0002C031001491EBC03590A300C411C591E1B
:101CF000DA03590A300C411C591E970340010E03A8
:101D00003001891E9E03990A700C811C991EF803EC
:101D1000990A700C811C991E261837084808590822
:101D200049925992AC0CBD1CB0FE8CCF04E0A09F30
:101D3000C00DD11DE00DF11DB09FD00DF00D81E063
:101D4000E81AF90A09F07BCFEF91FF918F919F91EB
:101D5000880F991FB695A795109609F060CFCF917F
:101D6000DF910F911F91EF90FF90CF90DF90AF9098
:101D7000BF908F909F906F907F904F905F902F902B
:101D80003F9008953F922F925F924F927F926F9271
:101D90009F928F92BF92AF921F930F93DF93CF9337
:101DA0005C01EB01E2E1FBE1992700E410E0A59181
:101DB000B591AA0DBB1D2D913D914D915D91B30340
:101DC00020012A031001491EBA03590A300C411C94
:101DD000591EBA03590A300C411C591ED503400143
:101DE0004C033001891EDC03990A700C811C991E7A
:101DF000DC03990A700C811C991E260C371C481CA8
:101E0000591C662477248824992421E030E0442753
:101E1000552770E1220C331C441C551C661C771C92
:101E2000881C991C220C331C441C551C661C771CF6
:101E3000881C991C2AF4620E731E841E951E04C011
:101E4000621A730A840A950A220F331F441F287FDF
:101E5000256097FC22507A95E9F6469537952795A7
:101E6000469537952795299339930150104009F0ED
:101E70009ECFCF91DF910F911F91AF90BF908F9028
:101E80009F906F907F904F905F902F903F90112484
:101E90000895AC019927D703F0014E03D001E91F43
:101EA000DE03F90BB00DE11DF91FFC03F90BB00DBA
:101EB000E11DF91FCF0111240895AA1BBB1B51E19D
:101EC00007C0AA1FBB1FA617B70710F0A61BB70BAA
:101ED000881F991F5A95A9F780959095BC01CD014F
:101EE000089597FB092E07260AD077FD04D0E5DF79
:101EF00006D000201AF4709561957F4F0895F6F78B
:101F0000909581959F4F0895A1E21A2EAA1BBB1BA5
:101F1000FD010DC0AA1FBB1FEE1FFF1FA217B307B5
:101F2000E407F50720F0A21BB30BE40BF50B661FCB
:101F3000771F881F991F1A9469F76095709580958F
:101F400090959B01AC01BD01CF01089597FB092E2F
:101F500005260ED057FD04D0D7DF0AD0001C38F478
:101F600050954095309521953F4F4F4F5F4F0895C5
:101F7000F6F790958095709561957F4F8F4F9F4FA5
:101F800008952F923F924F925F926F927F928F921D
:101F90009F92AF92BF92CF92DF92EF92FF920F93F8
:101FA0001F93CF93DF93CDB7DEB7CA1BDB0B0FB602
:101FB000F894DEBF0FBECDBF09942A8839884888BF
:101FC0005F846E847D848C849B84AA84B984C88455
:101FD000DF80EE80FD800C811B81AA81B981CE0F4C
:101FE000D11D0FB6F894DEBF0FBECDBFED01089531
:101FF000F999FECF92BD81BDF89A992780B50895D1
:04200000F894FFCF82
:102004006164632064656C6179003C203E0064690E
:10201400676974616C006F7363696C6C2E00763150
:102024002E3000666674206C69622E00627920632B
:1020340068616E0073657267657900766F6C6F64B2
:10204400696E003230313100692E313739652E6EB8
:102054006574006C63645F736B6970006164632012
:1020640073746570006D6F6465007369676E616C8D
:1020740000737065637472756D003870783D006824
:102084007A007879006475616C007561727400750A
:1020940061727420627566006D656E75006578699D
:1020A400740061646320642073746570006C6364FD
:1020B40020736B69700061626F7574006466726589
:0C20C400712F323D000414FF01010100E7
:00000001FF
