:100000000C9438000C9455000C9455000C94550039
:100010000C9455000C9455000C9455000C9455000C
:100020000C9455000C9455000C9455000C945500FC
:100030000C9455000C9455000C9484040C945500B9
:100040000C9455000C9455000C94C6090C94550062
:100050000C9455000C9455000C9455000C945500CC
:100060000C949D040C9455000C9455000C94550070
:1000700011241FBECFEFD0E1DEBFCDBF11E0A0E065
:10008000B1E0E2EBFFE102C005900D92AE3FB10797
:10009000D9F715E0AEEFB1E001C01D92A13AB1076A
:1000A000E1F70E94D1070C94D70F0C940000109236
:1000B000C50081E88093C40086E08093C20088E197
:1000C0008093C1000895982F10929D0510929C0571
:1000D00020E030E002C02F5F3F4F8091C00085FDDF
:1000E00004C083E0283E3807B0F330939D05209389
:1000F0009C059093C600089510929D0510929C0552
:1001000020E030E002C02F5F3F4F8091C00087FDAC
:1001100004C083E0283E3807B0F330939D05209358
:100120009C058091C600809314020895909113025B
:1001300002C09091C6008091C00087FDFACF9093D5
:10014000130208951F93182F0E947C0080931202BF
:10015000873619F4812F0E9463009091130202C028
:100160009091C6008091C00087FDFACF9093130252
:100170001F91089528E833E104C0F9013197F1F7A0
:1001800001970097D1F70895DF92EF92FF920F93B6
:100190001F93162FF72E792F96E0D92E03C0ED2D41
:1001A000EA95F1F7E22EEA94F1E0E21608F0F0E0C9
:1001B000232F2150E1E0231708F0E0E00F2F020F7A
:1001C00031E0021708F030E0E32B242F2150F1E05A
:1001D000241708F0F0E06E2F620F31E0621708F08C
:1001E00030E0F32B252F215041E0251708F040E0A7
:1001F0009F2F920F31E0921708F030E0432B212F10
:10020000215051E0211708F050E0B42FB20F31E037
:10021000B21708F030E0532B2F2D215041E02F155D
:1002200008F040E0A52FA20F31E0A21708F030E05F
:10023000432B282F2150E1E0281708F0E0E0F42FAD
:10024000F20F81E0F21708F080E0E82B71502E2DBC
:10025000302F462F592F1B2FFA2E8F2F7E0F2F3F17
:1002600009F09DCF0F3F09F09ACF6F3F09F097CF6C
:100270009F3F09F094CFBF3F09F091CFAF3F09F006
:100280008ECFFF3F09F08BCF7F3F09F088CF1F91C2
:100290000F91FF90EF90DF90089568B9823011F4CC
:1002A0005D9A01C05D985E9A80E090E036E003C000
:1002B000232F2A95F1F7019687309105C9F75E98AB
:1002C0005D9818B80895682F803420F05B9A5A988A
:1002D000605402C05A9A5B98606481E00E944D01AC
:1002E0000895682F686B81E00E944D0108951F9367
:1002F000162F0E946301812F0E9471011F910895A2
:100300000F931F93162F042F0E946301812F0E94C9
:10031000710182E0602F0E944D011F910F9108959D
:10032000FF920F931F93CF93DF93F82E8BB18C60C6
:100330008BB980910E0290910F0200E010E012C084
:10034000802F0E947101C0E0D0E004C082E06F2DD8
:100350000E944D012196C134D105C1F70F5F1F4F97
:1003600080E490E00830110558F390930F028093D9
:100370000E021093110200931002CDB7DEB7E5E034
:100380000C94AD0F8CEF8AB91BB88FEF87B918B8F2
:1003900028EE33E048E853E103C0CA010197F1F7C2
:1003A000215030408FEF2F3F3807B9F78CE88BB9D9
:1003B00081E06FE30E944D0181E060EC0E944D01FD
:1003C00081E060E40E944D0181E068EB0E944D01F4
:1003D00080E00E94900108950E9477018BB18063B4
:1003E0008BB980E090E036E003C0232F2A95F1F727
:1003F000019687309105C9F78BB18F7C8BB988B195
:100400000895E82F262F30E0C901887F68E070E06A
:100410000E94340F2770307041E050E002C0440F5A
:10042000551F2A95E2F78E2F0E9480010895EF92C2
:10043000FF920F931F93E82E062F10E0C801887FCC
:1004400068E070E00E94340FF62E8E2D0E94EC01C1
:100450000770107021E030E002C0220F331F0A95B0
:10046000E2F7482F422B8E2D6F2D0E9480011F91A5
:100470000F91FF90EF900895A0E0B0E0E2E4F2E089
:100480000C948F0FD82EE62EFF24C701887F68E0DA
:1004900070E00E94340F00271127061B170B095F1D
:1004A0001F4FC7E0D0E00BC08D2D0E9463018C2F41
:1004B0000E94710182E06FEF0E944D0121970C179D
:1004C0001D0794F38D2D0E9463018C2F0E947101F2
:1004D00027E030E040E0B70160957095677070707C
:1004E000E1E0F0E00AC0CF01022E02C0880F991FA0
:1004F0000A94E2F7482B21503040261737079CF723
:10050000442321F082E0642F0E944D01CDB7DEB775
:10051000E7E00C94AB0FA0E0B0E0E1E9F2E00C946E
:100520008F0FD82E7B018B0123E0169507952A9516
:10053000E1F7C0E0D0E009C08C2F6D2D0E9477015B
:1005400082E06FEF0E944D012196C017D107A0F302
:10055000802F6D2D0E947701B7016770707020E0C9
:1005600030E040E0A7E0B0E0E1E0F0E0CD01821B48
:10057000930BEF0102C0CC0FDD1F8A95E2F74C2BE5
:100580002F5F3F4F6217730788F782E0642F0E9446
:100590004D01CDB7DEB7E7E00C94AB0F90E0887F5C
:1005A00068E070E00E94340F862F0895EF92FF926A
:1005B0000F931F93CF93DF93E82E162FF42E00E0B6
:1005C000C1E0D0E01EC0812F90E0877090709E0146
:1005D000082E02C0220F331F0A94E2F7022B07975E
:1005E00011F01F1569F48E2D0E946301812F0E9466
:1005F000CE020E94710182E0602F0E944D0100E056
:100600001F5FF11600F700930C02CDB7DEB7E6E0EE
:100610000C94AC0F83B182708093010283B184701B
:100620008093000283B181708093FF0183B1807158
:100630008093020283B180728093030283B1887039
:100640008093040208958091F1018F3F21F49695E3
:100650008FE3891B0895969596958FE3891B0895DE
:100660000F931F931092FA011FE304E046C1A62FD7
:10067000B0E0FD01EE0FFF1FE656FB4F8181709148
:10068000F1017F3F11F4869502C086958695912FE2
:10069000981B492F50E05093980440939704809101
:1006A000EE01843009F07EC0623060F1FD01EE0F92
:1006B000FF1FEA56FB4F81817F3F11F4869502C0F0
:1006C00086958695912F981B292F30E030939604BC
:1006D000209395042417350748F4C901840F951F0A
:1006E0009695879590939B0580939A05421753079B
:1006F00088F4240F351F3695279530939F05209356
:100700009E0508C050939B0540939A0550939F0502
:1007100040939E056E37F0F5AA0FBB1FA256BB4F44
:100720001196EC917F3F29F4E695812F8E1BE82FDF
:1007300005C0E695E695912F9E1BE92FF0E0F0931A
:100740009604E0939504E417F50788F4CF01840F2D
:10075000951F20919A0530919B05969587952817AE
:10076000390708F4C90190939B0580939A054E17A9
:100770005F0780F4E40FF51F80919E0590919F051F
:10078000F695E795E817F90708F4FC01F0939F0543
:10079000E0939E05862F86958093A0056F5F6093FA
:1007A000FA0179C0662361F1FD01EE0FFF1FE856E3
:1007B000FB4F81817F3F11F4869502C08695869517
:1007C000912F981B292F30E03093960420939504A5
:1007D0002417350748F4C901840F951F969587950E
:1007E00090939B0580939A054217530790F4240F2A
:1007F000351F3695279530939F0520939E0509C098
:1008000050939B0540939A0550939F0540939E05F6
:1008100002C06F37F0F5AA0FBB1FA456BB4F11964D
:10082000EC917F3F29F4E695812F8E1BE82F05C0C0
:10083000E695E695912F9E1BE92FF0E0F093960444
:10084000E0939504E417F50788F4CF01840F951F12
:1008500020919A0530919B05969587952817390721
:1008600008F4C90190939B0580939A054E175F0782
:1008700080F4E40FF51F80919E0590919F05F695F9
:10088000E795E817F90708F4FC01F0939F05E0935A
:100890009E056093A0057F3F91F4109299040AC0D1
:1008A0008091A00540E00E948001809199048F5FB3
:1008B0008093990460919904683090F311C000937B
:1008C00099040AC08091A00540E00E9480018091B7
:1008D00099048F5F8093990460919904683090F334
:1008E0008091A00560919A0540919E050E94D602D4
:1008F0008091FA018F5F8093FA016091FA0167FF9E
:10090000B6CE1F910F9108951F920F920FB60F92BE
:1009100011248F93EF93FF9310928500109284001F
:10092000EAE7F0E0808180648083FF91EF918F910E
:100930000F900FBE0F901F9018951F920F920FB639
:100940000F9211242F933F934F935F936F937F9355
:100950008F939F93AF93EF93FF938091F001882340
:1009600009F482C08091FE0187FF05C08091EE01ED
:10097000853009F079C0A091EE01A53019F48FE718
:100980008093FE018A2F8150823028F0A43019F024
:10099000A63009F042C040910A0250910B028091AA
:1009A000F6019091F7014817590738F010920B02A1
:1009B00010920A02109206022DC08091060288232E
:1009C00061F18091780090917900209178003091C8
:1009D00079008091FE01682F70E0FB01EE0FFF1F90
:1009E000E656FB4F80819181281B390B8091F201E3
:1009F0009091F3018217930780F48091F401909114
:100A0000F5016817790748F44F5F5F4F50930B0269
:100A100040930A021092FE0127C04091FE01242F4C
:100A200030E08091780090917900F901EE0FFF1F7E
:100A3000E656FB4F9695879591838083A33079F492
:100A400040FD09C081E680937C0080917A0080643B
:100A500080937A0006C080E680937C0002C0A530B7
:100A600019F04F5F4093FE01FF91EF91AF919F917D
:100A70008F917F916F915F914F913F912F910F9047
:100A80000FBE0F901F9018951F93CF93DF93109276
:100A90000D0295E0899FE00111240CC0CE01810F69
:100AA000911D0E94CF0F682F82E00E944D011F5FB1
:100AB00010930D0210910D02153080F382E060E07A
:100AC0000E944D01DF91CF911F910895A0E0B0E009
:100AD000ECE6F5E00C948B0F962E59016A01EC01BF
:100AE0002697211531054105510591F58C2F0E945E
:100AF0006301892D0E94710180E30E94440528C092
:100B0000C601B5012AE030E040E050E00E94470F06
:100B10007B018C018C2F0E946301892D0E94710141
:100B20008E2D805D0E9444052697C701A0E0B0E0AD
:100B3000A81AB90ACA0ADB0AC601B5012AE030E0E0
:100B400040E050E00E94470FC901DA015C016D01ED
:100B5000A114B104C104D10499F6CDB7DEB7EBE01E
:100B60000C94A70F0F931F93CF93DF93EC01162FD5
:100B7000042F0AC0812F0E946301802F0E947101FF
:100B800089910E9444051A5F8881882399F7DF9133
:100B9000CF911F910F9108958091F1018A300CF44B
:100BA0008CC18B3031F580E091E060E040E00E9444
:100BB000B20560918A0070918B006055704033E0FF
:100BC000769567953A95E1F781E00E948B02209136
:100BD0008A0030918B0040E050E08FE790E062E0C7
:100BE00070E00E9466058BE091E060E042E00E94C8
:100BF000B2058091F1018231B1F58FE091E060E0C2
:100C000040E00E94B20587E191E06AE041E00E9485
:100C1000B2058FE191E060E042E00E94B20584E21B
:100C200091E060E044E00E94B2058DE291E060E076
:100C300045E00E94B20585E391E060E440E00E9457
:100C4000B2058CE391E066E441E00E94B20584E4E1
:100C500091E060E542E00E94B20589E491E060E441
:100C600044E00E94B2058091F1018F30A9F484E53F
:100C700091E060E040E00E94B2056091F80170915F
:100C8000F9017695679581E00E948B028BE091E0F7
:100C900060E042E00E94B2058091F1018E30B9F42B
:100CA0008DE591E060E040E00E94B2052091EF0107
:100CB00030E040E050E080E490E061E070E00E94CD
:100CC00066058BE091E060E042E00E94B205809111
:100CD000F1018D30C1F488E691E060E040E00E94CF
:100CE000B2052091F2013091F30140E050E080E440
:100CF00090E061E070E00E9466058BE091E060E0CA
:100D000042E00E94B2058091F1018C3041F582E70A
:100D100091E060E040E00E94B2052091F401309142
:100D2000F5012115310549F040E050E080E490E004
:100D300061E070E00E94660506C08CE791E060E02B
:100D400041E00E94B2058BE091E060E042E00E9449
:100D5000B20585E891E060E043E00E94B205809131
:100D6000F1018031F9F480E991E060E040E00E9417
:100D7000B20521E030E00090080202C0220F331FCC
:100D80000A94E2F7442737FD4095542F8FE390E013
:100D900061E070E00E9466058BE091E060E042E077
:100DA0000E94B2058091F1018131F9F48AE991E064
:100DB00060E040E00E94B20521E030E000900902CE
:100DC00002C0220F331F0A94E2F7442737FD4095F3
:100DD000542F8FE390E061E070E00E9466058BE0A5
:100DE00091E060E042E00E94B2058091F1018A301A
:100DF00009F0D6C084EA91E060E040E00E94B205CC
:100E00008091EE01813019F489EA91E04BC0823083
:100E100019F480EB91E009C0833019F481EC91E082
:100E200041C08430B1F584EC91E060E041E00E9483
:100E3000B2058091EE01823011F0843031F489EBFB
:100E400091E060E440E00E94B20520918A00309178
:100E50008B000090080202C0220F331F0A94E2F7B1
:100E600040E050E060E07DE281E391E00E94690FA4
:100E700094E055954795379527959A95D1F780E851
:100E800090E060E070E00E9466058EEB91E065E71F
:100E90000AC0853019F489EC91E004C0863031F441
:100EA0008EEC91E060E041E00E94B2058BE091E0C1
:100EB00060E042E00E94B20508958F3F09F470C0DF
:100EC00087ED91E060E040E00E94B2058091F10181
:100ED000882331F48CED91E060E041E00E94B2059E
:100EE0008091F101823031F480E091E060E041E0F6
:100EF0000E94B2058091F101853031F48DE591E0D9
:100F000060E041E00E94B2058091F101863031F449
:100F100084E591E060E041E00E94B2058091F1013A
:100F2000833031F482E791E060E041E00E94B20555
:100F30008091F101843031F488E691E060E041E095
:100F40000E94B2058091F101873031F480E991E08F
:100F500060E041E00E94B2058091F101883031F4F7
:100F60008AE991E060E041E00E94B2058091F101E0
:100F7000893031F481EE91E060E041E00E94B205F9
:100F80008091F101813031F484EA91E060E041E048
:100F90000E94B2058BE091E060E042E00E94B20561
:100FA0000895A0E0B0E0E7EDF7E00C948D0F84B178
:100FB000807C84B90F9A179885B18F6385B9109298
:100FC000C50081E88093C40086E08093C20088E178
:100FD0008093C1000E94C20180E680937C008DED69
:100FE00080937A0085E085BD21E020936E0084E047
:100FF00080936F0016BC109285001092840080E5EB
:1010000090E090938B0080938A00209381007894E5
:10101000C1E0D0E040E8E42E3FE3D32E2FE3C22E20
:1010200090E4B92E09E010E086E0F82E80910502E8
:10103000882359F080E00E9490018091F00188237C
:1010400011F0109205020E94CC058091FE018F37AD
:1010500050F48091F001882309F043C1809105028A
:10106000882309F43EC18091F001882311F4109285
:10107000050280910602882319F481E0809306021C
:1010800010920B0210920A028091EE01823019F048
:10109000843009F06FC08AE994E065E172E00E9453
:1010A000A00D85E192E00E94CF0D85E192E065E11F
:1010B00074E00E94990E1092FA0157C0F0E0EE0F12
:1010C000FF1FEB5EFB4F809109029801281B31093D
:1010D0008081918102C0969587952A95E2F7809349
:1010E0009904803410F0C09299041092A0050AC0AF
:1010F000822F805C40E00E9480018091A0058F5F7C
:101100008093A0056091A0052091FA01673080F3DB
:10111000822F90E087709070892B59F4822F805C29
:101120000E94630182E00E94710182E061E00E94FE
:101130004D018091FA0190E00090080202C0880FF2
:10114000991F0A94E2F7805C9F4F909398048093D4
:1011500097048038910520F4609199040E943C0224
:101160008091FA018F5F8093FA01E091FA01E034F7
:1011700008F4A4CF8091EE01813011F08430C9F4DD
:101180002091FB013091FC018091F8019091F901CF
:101190002817390738F0D093FC01C093FB010E9457
:1011A00030039DC02F5F3F4F3093FC012093FB0124
:1011B00096C0833009F052C02091FB013091FC01B0
:1011C0008091F8019091F9012817390710F1D09317
:1011D000FC01C093FB01B092990416C01092FA0171
:1011E0000AC08091990440E00E9480018091FA0138
:1011F0008F5F8093FA016091FA01683090F38091DB
:1012000099048F5F809399048091990487FFE6CFBA
:1012100006C02F5F3F4F3093FC012093FB011092DB
:10122000990417C0F0E0EE0FFF1FDF01A656BB4F79
:1012300011968C918695E456FB4F918196956D2D74
:10124000691B805C0E941702809199048E5F8093D5
:101250009904E0919904E7FFE5CF41C0863081F51C
:101260001092FA011092A00526C0E22FF0E0EE0FD6
:10127000FF1FE656FB4F80819181880F892F881FC1
:10128000990B9195809399042F5F2093FA010E9406
:10129000A20080919C0590919D05885E934029F461
:1012A0008091A0058F5F8093A0058091A0058A3072
:1012B00010F0E092FA012091FA0127FFD6CF0FC07B
:1012C000853069F48091980590919905880F892F50
:1012D000881F990B9195809399040E94A200109207
:1012E000FE018F2D8A95F1F7A1CE8091EE01843019
:1012F00011F0823031F489EB91E060E440E00E942B
:10130000B20520918A0030918B000090080202C043
:10131000220F331F0A94E2F740E050E060E07DE2E4
:1013200081E391E00E94690F64E0559547953795F8
:1013300027956A95D1F780E890E060E070E00E9420
:1013400066058EEB91E065E741E00E94B205809171
:10135000EE01813011F0843031F487EE91E060E0ED
:1013600040E00E94B20520918A0030918B0040E05D
:1013700050E060E07DE281E391E00E94690F8FE33D
:1013800090E061E070E00E94660508951F920F9260
:101390000FB60F9211242F933F934F935F936F9348
:1013A0007F938F939F93AF93BF93EF93FF9393B1EB
:1013B00098709093F00180910402882331F499236E
:1013C00059F080916F00846005C0992329F48091C1
:1013D0006F008B7F80936F009091F1019F3F09F028
:1013E000CBC0199937C080910102882399F12091CF
:1013F0008A0030918B006091EF0140E050E08FEF68
:101400009FEFA0E0B0E0861B9109A109B109821706
:101410009307A407B5071CF480E590E006C080910F
:101420008A0090918B00860F911D90938B00809382
:101430008A000E94750928EC30E048E853E103C0B7
:10144000CA010197F1F7215030408FEF2F3F380745
:10145000B9F785C01A9930C080910002882361F1E4
:1014600020918A0030918B008091EF01482F50E04D
:10147000CA01805B9F4F2817390718F48FEF9FEF41
:1014800006C080918A0090918B00841B950B9093ED
:101490008B0080938A000E94750928EC30E048E8B0
:1014A00053E103C0CA010197F1F7215030408FEF9B
:1014B0002F3F3807B9F753C01C9928C0809102020A
:1014C000882321F180918A0090918B008F5F9F4F3C
:1014D00019F480E590E005C080918A0090918B001E
:1014E000019690938B0080938A000E94750928ECE6
:1014F00030E048E853E103C0CA010197F1F72150F9
:1015000030408FEF2F3F3807B9F729C01D992AC007
:1015100080910302882331F180918A0090918B00A1
:101520008035910519F48FEF9FEF05C080918A00F7
:1015300090918B00019790938B0080938A000E947A
:10154000750928EC30E048E853E103C0CA0101976F
:10155000F1F7215030408FEF2F3F3807B9F7109245
:1015600006029BC1189999C18091FF01882309F453
:1015700094C11092F1018EC19A300CF450C11899A7
:1015800008C08091FF01882321F099509093F101C8
:1015900081C19A3029F519990CC0809101028823E4
:1015A00041F08091EE01863011F481E010C08F5F30
:1015B0000EC01A9972C180910002882309F46DC18E
:1015C0008091EE01813011F486E001C0815080935A
:1015D000EE01833009F45EC180E680937C005AC13D
:1015E0009B3089F5199914C080910102882381F0FC
:1015F00080918A0090918B008F5F9F4F19F480E556
:1016000090E01CC080918A0090918B00019616C0DA
:101610001A9943C180910002882309F43EC1809148
:101620008A0090918B008035910519F48FEF9FEF20
:1016300005C080918A0090918B00019790938B0058
:1016400080938A0027C19C3041F5199910C0809180
:101650000102882361F08091F4019091F5018F37A8
:10166000910519F480E090E013C0019611C01A9919
:1016700014C180910002882309F40FC18091F40104
:101680009091F501009719F48FE790E001C0019760
:101690009093F5018093F401FDC09D3061F5199997
:1016A00012C080910102882371F08091F201909123
:1016B000F3012FEF8C39920718F084E690E016C002
:1016C0008C599F4F13C01A99E8C08091000288235B
:1016D00009F4E3C08091F2019091F301883C9105F7
:1016E00018F48FEF9FEF02C0845690409093F3015F
:1016F0008093F201CFC09E30D9F4199908C080912F
:101700000102882321F08091EF018F5F0EC01A99AA
:10171000C4C080910002882309F4BFC08091EF010A
:10172000813011F48FEF01C081508093EF01B2C07E
:101730009F3051F5199911C080910102882369F0F9
:101740008091F8019091F90123E0883E920719F405
:1017500081E090E014C0019612C01A999EC0809159
:101760000002882309F499C08091F8019091F90151
:101770008130910519F488EE93E001C001979093B0
:10178000F9018093F80186C0903119F5199910C0BC
:1017900080910102882361F080910802853011F464
:1017A00080E001C08F5F8093080281E08093050292
:1017B0001A9973C080910002882309F46EC0809149
:1017C0000802882311F485E001C08150809308024B
:1017D00061C0913109F061C0199910C08091010276
:1017E000882361F080910902863011F480E001C005
:1017F0008F5F8093090281E0809305021A994DC0A2
:1018000080910002882309F448C08091090288234E
:1018100011F486E001C08150809309023BC0199900
:101820000FC080910102882359F0993011F480E0B3
:1018300002C0892F8F5F8093F10181E080930502C0
:101840001A9910C080910002882361F08091F10103
:10185000882311F489E001C081508093F10181E077
:1018600080930502189919C08091FF018823A9F07F
:101870008091F101882349F48FEF8093F10181E099
:10188000809305021092FF0108C0875F8093F101E9
:101890001092FF0181E0809305020E940A03FF91EC
:1018A000EF91BF91AF919F918F917F916F915F91D8
:1018B0004F913F912F910F900FBE0F901F90189551
:1018C0003D0A4F0A850AE00A5E0B010CC60CAE0DFC
:1018D000B80EE40F31119D122914D3159A177D19F2
:1018E0007C1B931DC41F0B226824D9265C29F12B75
:1018F000962E48310634CF36A1397A3C583F3A42C9
:101900001E450148E34AC14D9A506C533556F45870
:10191000A65B4A5EDF606363D4653168786AA86C51
:10192000C06EBE70A172687412769E770B79577A7A
:10193000837B8D7C757D3B7EDD7E5B7FB67FEC7F20
:10194000FE7FEC7FB67F5B7FDD7E3B7E757D8D7C91
:10195000837B577A0B799E7712766874A172BE707A
:10196000C06EA86C786A3168D4656363DF604A5ED4
:10197000A65BF45835566C539A50C14DE34A014862
:101980001E453A42583F7A3CA139CF360634483199
:10199000962EF12B5C29D92668240B22C41F931D97
:1019A0007C1B7E199A17D31529149D123111E40F4F
:1019B000B80EAE0DC60C010C5E0BE00A850A4F0A8C
:1019C000FF7F0000D77F4706617F8B0C9C7EC7128C
:1019D000897DF818297C191F7C7A272583781E2B8E
:1019E0004076FB30B573B936E170563CC96DCD41D8
:1019F0006C6A1C47CE663F4CF1623351D65EF4559B
:101A0000815A815AF455D65E3351F1623F4CCE660D
:101A10001C476C6ACD41C96D563CE170B936B5734F
:101A2000FB3040761E2B837827257C7A191F297C72
:101A3000F818897DC7129C7E8B0C617F4706D77F83
:101A40000000FE7FB9F9D77F75F3617F39ED9C7E89
:101A500008E7897DE7E0297CD9DA7C7AE2D48378CB
:101A600005CF407647C9B573AAC3E17033BEC96DCF
:101A7000E4B86C6AC1B3CE66CDAEF1620CAAD65E94
:101A80007FA5815A2AA1F5550F9D335132993F4CBC
:101A900094951C473792CD411F8F563C4C8CB936DC
:101AA000C089FB307D871E2B84852725D883191F8D
:101AB0007782F8186481C7129F808B0C29804706B3
:101AC000000000018000800140004001C000C00112
:101AD00020002001A000A00160006001E000E00102
:101AE000100010019000900150005001D000D00172
:101AF00030003001B000B00170007001F000F00162
:101B0000080008018800880148004801C800C80191
:101B100028002801A800A80168006801E800E80181
:101B2000180018019800980158005801D800D801F1
:101B300038003801B800B80178007801F800F801E1
:101B40003F922F921F930F93DF93CF93DC01EB0112
:101B50009927E0ECF8E100E810E0259135914D91EE
:101B60005D91B503B0012C031001691FBC03790B13
:101B7000300C611D791FDA03790B300C611D791F60
:101B800069937993699379930150104031F7CF911C
:101B9000DF910F911F912F903F90112408953F9254
:101BA0002F925F924F927F926F929F928F92BF92ED
:101BB000AF92DF92CF92FF92EF921F930F93DF933A
:101BC000CF93FC0181E090E0A0E4B0E004E0809FCE
:101BD0006001909FD00C7C019F938F93EF01A09F99
:101BE000C00DD11DB09FD00DFF93EF93BB24AA244D
:101BF00099270081118115950795688179817595DF
:101C00006795A801061B170B460F571F4193519369
:101C100020813181359527956A817B8175956795FE
:101C2000A901261B370B460F571F419351930F01F4
:101C3000E0ECF9E1EA0DFB1D459155916591759137
:101C4000F001950320010C031001491E9C03590A61
:101C5000300C411C591ED803590A300C411C591E26
:101C6000B70340012E033001891EBE03990A700C90
:101C7000811C991EFA03990A700C811C991E260C6E
:101C8000371C481C591C49925992B50320012C035A
:101C90001001491EBC03590A300C411C591EDA03BD
:101CA000590A300C411C591E970340010E033001A4
:101CB000891E9E03990A700C811C991EF803990ACB
:101CC000700C811C991E261837084808590849923B
:101CD0005992AC0CBD1CB0FE8CCF04E0A09FC00D8F
:101CE000D11DE00DF11DB09FD00DF00D81E0E81A7F
:101CF000F90A09F07BCFEF91FF918F919F91880FA7
:101D0000991FB695A795109609F060CFCF91DF91F6
:101D10000F911F91EF90FF90CF90DF90AF90BF9009
:101D20008F909F906F907F904F905F902F903F90FB
:101D300008953F922F925F924F927F926F929F925F
:101D40008F92BF92AF921F930F93DF93CF935C015B
:101D5000EB01E0ECFAE1992700E410E0A591B591E0
:101D6000AA0DBB1D2D913D914D915D91B3032001B5
:101D70002A031001491EBA03590A300C411C591E8E
:101D8000BA03590A300C411C591ED50340014C03BB
:101D90003001891EDC03990A700C811C991EDC033A
:101DA000990A700C811C991E260C371C481C591C62
:101DB000662477248824992421E030E0442755279D
:101DC00070E1220C331C441C551C661C771C881CBB
:101DD000991C220C331C441C551C661C771C881C47
:101DE000991C2AF4620E731E841E951E04C0621A8A
:101DF000730A840A950A220F331F441F287F256027
:101E000097FC22507A95E9F64695379527954695A1
:101E100037952795299339930150104009F09ECFAB
:101E2000CF91DF910F911F91AF90BF908F909F90B6
:101E30006F907F904F905F902F903F901124089566
:101E4000AC019927D703F0014E03D001E91FDE034F
:101E5000F90BB00DE11DF91FFC03F90BB00DE11DED
:101E6000F91FCF011124089597FB092E07260AD0E8
:101E700077FD04D080D006D000201AF470956195CB
:101E80007F4F0895F6F7909581959F4F0895A1E2B1
:101E90001A2EAA1BBB1BFD010DC0AA1FBB1FEE1FE4
:101EA000FF1FA217B307E407F50720F0A21BB30B2F
:101EB000E40BF50B661F771F881F991F1A9469F7AB
:101EC00060957095809590959B01AC01BD01CF0107
:101ED000089597FB092E05260ED057FD04D0D7DFB5
:101EE0000AD0001C38F450954095309521953F4F0D
:101EF0004F4F5F4F0895F6F79095809570956195D7
:101F00007F4F8F4F9F4F08952F923F924F925F9236
:101F10006F927F928F929F92AF92BF92CF92DF92F9
:101F2000EF92FF920F931F93CF93DF93CDB7DEB75E
:101F3000CA1BDB0B0FB6F894DEBF0FBECDBF0994F2
:101F40002A88398848885F846E847D848C849B8449
:101F5000AA84B984C884DF80EE80FD800C811B8157
:101F6000AA81B981CE0FD11D0FB6F894DEBF0FBE86
:101F7000CDBFED010895AA1BBB1B51E107C0AA1FED
:101F8000BB1FA617B70710F0A61BB70B881F991F1A
:101F90005A95A9F780959095BC01CD010895F999BE
:101FA000FECF92BD81BDF89A992780B50895F89427
:021FB000FFCF61
:101FB20061646320706572696F64003C203E006456
:101FC20069676974616C006F7363696C6C2E00766B
:101FD200312E3000666674206C69622E00627920B0
:101FE2006368616E0073657267657900766F6C6F06
:101FF20064696E003230313100692E313739652E15
:102002006E6574006C636420736B69700061646355
:102012002070207374657000616463206572726F52
:10202200720061646320636865636B006469736155
:10203200626C6564003020746F206473626C2E00E1
:1020420073702E20787A6F6F6D0073702E20797AFC
:102052006F6F6D006D6F6465007369676E616C0010
:10206200737065637472756D003870783D00687ABC
:10207200007879006475616C007561727400756135
:10208200727420627566006D656E7500657869749C
:102092000061626F75740064667265713D0004646C
:0E20A20001FF204E05000003010001010000B7
:00000001FF
